{
  "_format": "hh-sol-artifact-1",
  "contractName": "Atmofi",
  "sourceName": "contracts/Atmofi.sol",
  "abi": [
    {
      "inputs": [
        {
          "internalType": "address",
          "name": "_priceFeedAddress",
          "type": "address"
        }
      ],
      "stateMutability": "nonpayable",
      "type": "constructor"
    },
    {
      "inputs": [
        {
          "internalType": "address",
          "name": "have",
          "type": "address"
        },
        {
          "internalType": "address",
          "name": "want",
          "type": "address"
        }
      ],
      "name": "OnlyCoordinatorCanFulfill",
      "type": "error"
    },
    {
      "inputs": [
        {
          "internalType": "address",
          "name": "owner",
          "type": "address"
        }
      ],
      "name": "OwnableInvalidOwner",
      "type": "error"
    },
    {
      "inputs": [
        {
          "internalType": "address",
          "name": "account",
          "type": "address"
        }
      ],
      "name": "OwnableUnauthorizedAccount",
      "type": "error"
    },
    {
      "anonymous": false,
      "inputs": [
        {
          "indexed": true,
          "internalType": "uint256",
          "name": "derivativeId",
          "type": "uint256"
        }
      ],
      "name": "ContractFunded",
      "type": "event"
    },
    {
      "anonymous": false,
      "inputs": [
        {
          "indexed": true,
          "internalType": "uint256",
          "name": "derivativeId",
          "type": "uint256"
        },
        {
          "indexed": true,
          "internalType": "address",
          "name": "winner",
          "type": "address"
        },
        {
          "indexed": false,
          "internalType": "uint256",
          "name": "settledTemperature",
          "type": "uint256"
        }
      ],
      "name": "ContractSettled",
      "type": "event"
    },
    {
      "anonymous": false,
      "inputs": [
        {
          "indexed": true,
          "internalType": "uint256",
          "name": "derivativeId",
          "type": "uint256"
        },
        {
          "indexed": true,
          "internalType": "address",
          "name": "insurer",
          "type": "address"
        },
        {
          "indexed": true,
          "internalType": "address",
          "name": "beverageCompany",
          "type": "address"
        },
        {
          "indexed": false,
          "internalType": "uint256",
          "name": "strikeTemperature",
          "type": "uint256"
        }
      ],
      "name": "DerivativeCreated",
      "type": "event"
    },
    {
      "anonymous": false,
      "inputs": [
        {
          "indexed": true,
          "internalType": "address",
          "name": "previousOwner",
          "type": "address"
        },
        {
          "indexed": true,
          "internalType": "address",
          "name": "newOwner",
          "type": "address"
        }
      ],
      "name": "OwnershipTransferred",
      "type": "event"
    },
    {
      "anonymous": false,
      "inputs": [
        {
          "indexed": true,
          "internalType": "uint256",
          "name": "requestId",
          "type": "uint256"
        },
        {
          "indexed": true,
          "internalType": "uint256",
          "name": "derivativeId",
          "type": "uint256"
        }
      ],
      "name": "RandomnessRequested",
      "type": "event"
    },
    {
      "inputs": [
        {
          "internalType": "uint256",
          "name": "",
          "type": "uint256"
        }
      ],
      "name": "allDerivativeIds",
      "outputs": [
        {
          "internalType": "uint256",
          "name": "",
          "type": "uint256"
        }
      ],
      "stateMutability": "view",
      "type": "function"
    },
    {
      "inputs": [
        {
          "internalType": "bytes",
          "name": "_checkData",
          "type": "bytes"
        }
      ],
      "name": "checkUpkeep",
      "outputs": [
        {
          "internalType": "bool",
          "name": "upkeepNeeded",
          "type": "bool"
        },
        {
          "internalType": "bytes",
          "name": "performData",
          "type": "bytes"
        }
      ],
      "stateMutability": "view",
      "type": "function"
    },
    {
      "inputs": [
        {
          "internalType": "uint256",
          "name": "",
          "type": "uint256"
        }
      ],
      "name": "derivativeSettlementInitiated",
      "outputs": [
        {
          "internalType": "bool",
          "name": "",
          "type": "bool"
        }
      ],
      "stateMutability": "view",
      "type": "function"
    },
    {
      "inputs": [
        {
          "internalType": "uint256",
          "name": "",
          "type": "uint256"
        }
      ],
      "name": "derivatives",
      "outputs": [
        {
          "internalType": "address",
          "name": "insurer",
          "type": "address"
        },
        {
          "internalType": "address",
          "name": "beverageCompany",
          "type": "address"
        },
        {
          "internalType": "uint256",
          "name": "premiumAmount",
          "type": "uint256"
        },
        {
          "internalType": "uint256",
          "name": "payoutAmount",
          "type": "uint256"
        },
        {
          "internalType": "uint256",
          "name": "strikeTemperature",
          "type": "uint256"
        },
        {
          "internalType": "uint256",
          "name": "startTimestamp",
          "type": "uint256"
        },
        {
          "internalType": "uint256",
          "name": "endTimestamp",
          "type": "uint256"
        },
        {
          "internalType": "enum Atmofi.DerivativeState",
          "name": "state",
          "type": "uint8"
        },
        {
          "internalType": "bool",
          "name": "insurerFunded",
          "type": "bool"
        },
        {
          "internalType": "bool",
          "name": "beverageCompanyFunded",
          "type": "bool"
        },
        {
          "internalType": "uint256",
          "name": "settledTemperature",
          "type": "uint256"
        }
      ],
      "stateMutability": "view",
      "type": "function"
    },
    {
      "inputs": [
        {
          "internalType": "uint256",
          "name": "derivativeId",
          "type": "uint256"
        }
      ],
      "name": "fundInsurer",
      "outputs": [],
      "stateMutability": "payable",
      "type": "function"
    },
    {
      "inputs": [
        {
          "internalType": "uint256",
          "name": "limit",
          "type": "uint256"
        }
      ],
      "name": "getDerivativeHistory",
      "outputs": [
        {
          "components": [
            {
              "internalType": "address",
              "name": "insurer",
              "type": "address"
            },
            {
              "internalType": "address",
              "name": "beverageCompany",
              "type": "address"
            },
            {
              "internalType": "uint256",
              "name": "premiumAmount",
              "type": "uint256"
            },
            {
              "internalType": "uint256",
              "name": "payoutAmount",
              "type": "uint256"
            },
            {
              "internalType": "uint256",
              "name": "strikeTemperature",
              "type": "uint256"
            },
            {
              "internalType": "uint256",
              "name": "startTimestamp",
              "type": "uint256"
            },
            {
              "internalType": "uint256",
              "name": "endTimestamp",
              "type": "uint256"
            },
            {
              "internalType": "enum Atmofi.DerivativeState",
              "name": "state",
              "type": "uint8"
            },
            {
              "internalType": "bool",
              "name": "insurerFunded",
              "type": "bool"
            },
            {
              "internalType": "bool",
              "name": "beverageCompanyFunded",
              "type": "bool"
            },
            {
              "internalType": "uint256",
              "name": "settledTemperature",
              "type": "uint256"
            }
          ],
          "internalType": "struct Atmofi.Derivative[]",
          "name": "",
          "type": "tuple[]"
        }
      ],
      "stateMutability": "view",
      "type": "function"
    },
    {
      "inputs": [
        {
          "internalType": "address",
          "name": "beverageCompany",
          "type": "address"
        },
        {
          "internalType": "uint256",
          "name": "payoutAmount",
          "type": "uint256"
        },
        {
          "internalType": "uint256",
          "name": "strikeTemperature",
          "type": "uint256"
        },
        {
          "internalType": "uint256",
          "name": "durationSeconds",
          "type": "uint256"
        }
      ],
      "name": "initialize",
      "outputs": [],
      "stateMutability": "payable",
      "type": "function"
    },
    {
      "inputs": [],
      "name": "nextDerivativeId",
      "outputs": [
        {
          "internalType": "uint256",
          "name": "",
          "type": "uint256"
        }
      ],
      "stateMutability": "view",
      "type": "function"
    },
    {
      "inputs": [],
      "name": "owner",
      "outputs": [
        {
          "internalType": "address",
          "name": "",
          "type": "address"
        }
      ],
      "stateMutability": "view",
      "type": "function"
    },
    {
      "inputs": [
        {
          "internalType": "bytes",
          "name": "performData",
          "type": "bytes"
        }
      ],
      "name": "performUpkeep",
      "outputs": [],
      "stateMutability": "nonpayable",
      "type": "function"
    },
    {
      "inputs": [],
      "name": "priceFeed",
      "outputs": [
        {
          "internalType": "contract AggregatorV3Interface",
          "name": "",
          "type": "address"
        }
      ],
      "stateMutability": "view",
      "type": "function"
    },
    {
      "inputs": [],
      "name": "priceFeedContractAddress",
      "outputs": [
        {
          "internalType": "address",
          "name": "",
          "type": "address"
        }
      ],
      "stateMutability": "view",
      "type": "function"
    },
    {
      "inputs": [
        {
          "internalType": "uint256",
          "name": "requestId",
          "type": "uint256"
        },
        {
          "internalType": "uint256[]",
          "name": "randomWords",
          "type": "uint256[]"
        }
      ],
      "name": "rawFulfillRandomWords",
      "outputs": [],
      "stateMutability": "nonpayable",
      "type": "function"
    },
    {
      "inputs": [],
      "name": "renounceOwnership",
      "outputs": [],
      "stateMutability": "nonpayable",
      "type": "function"
    },
    {
      "inputs": [],
      "name": "s_subscriptionId",
      "outputs": [
        {
          "internalType": "uint256",
          "name": "",
          "type": "uint256"
        }
      ],
      "stateMutability": "view",
      "type": "function"
    },
    {
      "inputs": [
        {
          "internalType": "uint256",
          "name": "_subId",
          "type": "uint256"
        }
      ],
      "name": "setSubscriptionId",
      "outputs": [],
      "stateMutability": "nonpayable",
      "type": "function"
    },
    {
      "inputs": [
        {
          "internalType": "uint256",
          "name": "derivativeId",
          "type": "uint256"
        }
      ],
      "name": "settleContract",
      "outputs": [],
      "stateMutability": "nonpayable",
      "type": "function"
    },
    {
      "inputs": [
        {
          "internalType": "uint256",
          "name": "",
          "type": "uint256"
        }
      ],
      "name": "settledDerivativeIds",
      "outputs": [
        {
          "internalType": "uint256",
          "name": "",
          "type": "uint256"
        }
      ],
      "stateMutability": "view",
      "type": "function"
    },
    {
      "inputs": [
        {
          "internalType": "address",
          "name": "newOwner",
          "type": "address"
        }
      ],
      "name": "transferOwnership",
      "outputs": [],
      "stateMutability": "nonpayable",
      "type": "function"
    },
    {
      "inputs": [
        {
          "internalType": "uint256",
          "name": "",
          "type": "uint256"
        }
      ],
      "name": "vrfRequestToDerivativeId",
      "outputs": [
        {
          "internalType": "uint256",
          "name": "",
          "type": "uint256"
        }
      ],
      "stateMutability": "view",
      "type": "function"
    }
  ],
  "bytecode": "0x6101006040523480156200001257600080fd5b506040516200306b3803806200306b833981810160405281019062000038919062000327565b33738103b0a8a00be2ddc778e6e7eaa21791cd3646258073ffffffffffffffffffffffffffffffffffffffff1660808173ffffffffffffffffffffffffffffffffffffffff168152505050600073ffffffffffffffffffffffffffffffffffffffff168173ffffffffffffffffffffffffffffffffffffffff1603620000f85760006040517f1e4fbdf7000000000000000000000000000000000000000000000000000000008152600401620000ef91906200036a565b60405180910390fd5b6200010981620001f960201b60201c565b5080600560006101000a81548173ffffffffffffffffffffffffffffffffffffffff021916908373ffffffffffffffffffffffffffffffffffffffff1602179055508073ffffffffffffffffffffffffffffffffffffffff1660a08173ffffffffffffffffffffffffffffffffffffffff1681525050738103b0a8a00be2ddc778e6e7eaa21791cd36462573ffffffffffffffffffffffffffffffffffffffff1660c08173ffffffffffffffffffffffffffffffffffffffff16815250507f474e34a077df58807dbe9c96d3c009b23b3c6d0cce433e59bbf5b34f823bc56c60001b60e081815250505062000387565b60008060009054906101000a900473ffffffffffffffffffffffffffffffffffffffff169050816000806101000a81548173ffffffffffffffffffffffffffffffffffffffff021916908373ffffffffffffffffffffffffffffffffffffffff1602179055508173ffffffffffffffffffffffffffffffffffffffff168173ffffffffffffffffffffffffffffffffffffffff167f8be0079c531659141344cd1fd0a4f28419497f9722a3daafe3b4186f6b6457e060405160405180910390a35050565b600080fd5b600073ffffffffffffffffffffffffffffffffffffffff82169050919050565b6000620002ef82620002c2565b9050919050565b6200030181620002e2565b81146200030d57600080fd5b50565b6000815190506200032181620002f6565b92915050565b60006020828403121562000340576200033f620002bd565b5b6000620003508482850162000310565b91505092915050565b6200036481620002e2565b82525050565b600060208201905062000381600083018462000359565b92915050565b60805160a05160c05160e051612ca3620003c860003960006107940152600061075801526000610b790152600081816104cf01526105230152612ca36000f3fe60806040526004361061011f5760003560e01c80638ac00021116100a0578063b6a2512611610064578063b6a25126146103cc578063c0046e3914610409578063c1e0d23614610450578063f2fde38b14610479578063fac3fa3d146104a25761011f565b80638ac00021146102e05780638da5cb5b1461030b578063947b1bde146103365780639b4c0f2714610373578063a529303a1461038f5761011f565b80636c96d11f116100e75780636c96d11f146101f85780636e04ff0d14610223578063715018a614610261578063741bef1a146102785780637b1fcf9f146102a35761011f565b80631fe543e31461012457806322e4fdf81461014d5780632577929b1461018a5780634585e33b146101b35780634ec81af1146101dc575b600080fd5b34801561013057600080fd5b5061014b60048036038101906101469190611c35565b6104cd565b005b34801561015957600080fd5b50610174600480360381019061016f9190611c91565b61058d565b6040516101819190611cd9565b60405180910390f35b34801561019657600080fd5b506101b160048036038101906101ac9190611c91565b6105ad565b005b3480156101bf57600080fd5b506101da60048036038101906101d59190611d4f565b61086e565b005b6101f660048036038101906101f19190611dfa565b61088f565b005b34801561020457600080fd5b5061020d610b77565b60405161021a9190611e70565b60405180910390f35b34801561022f57600080fd5b5061024a60048036038101906102459190611d4f565b610b9b565b604051610258929190611f0a565b60405180910390f35b34801561026d57600080fd5b50610276610e02565b005b34801561028457600080fd5b5061028d610e16565b60405161029a9190611f99565b60405180910390f35b3480156102af57600080fd5b506102ca60048036038101906102c59190611c91565b610e3c565b6040516102d79190611fc3565b60405180910390f35b3480156102ec57600080fd5b506102f5610e54565b6040516103029190611fc3565b60405180910390f35b34801561031757600080fd5b50610320610e5a565b60405161032d9190611e70565b60405180910390f35b34801561034257600080fd5b5061035d60048036038101906103589190611c91565b610e83565b60405161036a9190611fc3565b60405180910390f35b61038d60048036038101906103889190611c91565b610ea7565b005b34801561039b57600080fd5b506103b660048036038101906103b19190611c91565b6110db565b6040516103c39190611fc3565b60405180910390f35b3480156103d857600080fd5b506103f360048036038101906103ee9190611c91565b6110ff565b6040516104009190612213565b60405180910390f35b34801561041557600080fd5b50610430600480360381019061042b9190611c91565b6113d4565b6040516104479b9a99989796959493929190612244565b60405180910390f35b34801561045c57600080fd5b5061047760048036038101906104729190611c91565b611495565b005b34801561048557600080fd5b506104a0600480360381019061049b91906122ef565b6114a7565b005b3480156104ae57600080fd5b506104b761152d565b6040516104c49190611fc3565b60405180910390f35b7f000000000000000000000000000000000000000000000000000000000000000073ffffffffffffffffffffffffffffffffffffffff163373ffffffffffffffffffffffffffffffffffffffff161461057f57337f00000000000000000000000000000000000000000000000000000000000000006040517f1cf993f400000000000000000000000000000000000000000000000000000000815260040161057692919061231c565b60405180910390fd5b6105898282611533565b5050565b60086020528060005260406000206000915054906101000a900460ff1681565b6000600160008381526020019081526020016000209050600160028111156105d8576105d7612028565b5b8160070160009054906101000a900460ff1660028111156105fc576105fb612028565b5b1461063c576040517f08c379a0000000000000000000000000000000000000000000000000000000008152600401610633906123a2565b60405180910390fd5b80600601544211610682576040517f08c379a00000000000000000000000000000000000000000000000000000000081526004016106799061240e565b60405180910390fd5b6008600083815260200190815260200160002060009054906101000a900460ff16156106e3576040517f08c379a00000000000000000000000000000000000000000000000000000000081526004016106da9061247a565b60405180910390fd5b600060065403610728576040517f08c379a000000000000000000000000000000000000000000000000000000000815260040161071f906124e6565b60405180910390fd5b60016008600084815260200190815260200160002060006101000a81548160ff02191690831515021790555060007f000000000000000000000000000000000000000000000000000000000000000073ffffffffffffffffffffffffffffffffffffffff16635d3b1d307f0000000000000000000000000000000000000000000000000000000000000000600654600362030d4060016040518663ffffffff1660e01b81526004016107de95949392919061257e565b6020604051808303816000875af11580156107fd573d6000803e3d6000fd5b505050506040513d601f19601f8201168201806040525081019061082191906125e6565b905082600760008381526020019081526020016000208190555082817f3d94fecedaa4f90b8bd459797adb95f5bb11426025c5541390d9ccc1ad1b60a160405160405180910390a3505050565b6000828281019061087f9190611c91565b905061088a816105ad565b505050565b600034116108d2576040517f08c379a00000000000000000000000000000000000000000000000000000000081526004016108c990612685565b60405180910390fd5b600060025490506040518061016001604052803373ffffffffffffffffffffffffffffffffffffffff1681526020018673ffffffffffffffffffffffffffffffffffffffff168152602001348152602001858152602001848152602001428152602001834261094191906126d4565b81526020016000600281111561095a57610959612028565b5b815260200160001515815260200160011515815260200160008152506001600083815260200190815260200160002060008201518160000160006101000a81548173ffffffffffffffffffffffffffffffffffffffff021916908373ffffffffffffffffffffffffffffffffffffffff16021790555060208201518160010160006101000a81548173ffffffffffffffffffffffffffffffffffffffff021916908373ffffffffffffffffffffffffffffffffffffffff16021790555060408201518160020155606082015181600301556080820151816004015560a0820151816005015560c0820151816006015560e08201518160070160006101000a81548160ff02191690836002811115610a7457610a73612028565b5b02179055506101008201518160070160016101000a81548160ff0219169083151502179055506101208201518160070160026101000a81548160ff021916908315150217905550610140820151816008015590505060026000815480929190610adc90612708565b919050555060048190806001815401808255809150506001900390600052602060002001600090919091909150558473ffffffffffffffffffffffffffffffffffffffff163373ffffffffffffffffffffffffffffffffffffffff16827f7ea4a1419eb9810bb15a3c4cd2feb13f1100abad058c5a5e314bf72deb3b87cd86604051610b689190611fc3565b60405180910390a45050505050565b7f000000000000000000000000000000000000000000000000000000000000000081565b6000606060005b600480549050811015610dfa57600060048281548110610bc557610bc4612750565b5b90600052602060002001549050600060016000838152602001908152602001600020604051806101600160405290816000820160009054906101000a900473ffffffffffffffffffffffffffffffffffffffff1673ffffffffffffffffffffffffffffffffffffffff1673ffffffffffffffffffffffffffffffffffffffff1681526020016001820160009054906101000a900473ffffffffffffffffffffffffffffffffffffffff1673ffffffffffffffffffffffffffffffffffffffff1673ffffffffffffffffffffffffffffffffffffffff16815260200160028201548152602001600382015481526020016004820154815260200160058201548152602001600682015481526020016007820160009054906101000a900460ff166002811115610cf657610cf5612028565b5b6002811115610d0857610d07612028565b5b81526020016007820160019054906101000a900460ff161515151581526020016007820160029054906101000a900460ff16151515158152602001600882015481525050905060016002811115610d6257610d61612028565b5b8160e001516002811115610d7957610d78612028565b5b148015610d8957508060c0015142115b8015610db357506008600083815260200190815260200160002060009054906101000a900460ff16155b15610de5576001945081604051602001610dcd9190611fc3565b60405160208183030381529060405293505050610dfa565b50508080610df290612708565b915050610ba2565b509250929050565b610e0a6118a3565b610e14600061192a565b565b600560009054906101000a900473ffffffffffffffffffffffffffffffffffffffff1681565b60076020528060005260406000206000915090505481565b60065481565b60008060009054906101000a900473ffffffffffffffffffffffffffffffffffffffff16905090565b60038181548110610e9357600080fd5b906000526020600020016000915090505481565b60006001600083815260200190815260200160002090508060000160009054906101000a900473ffffffffffffffffffffffffffffffffffffffff1673ffffffffffffffffffffffffffffffffffffffff163373ffffffffffffffffffffffffffffffffffffffff1614610f50576040517f08c379a0000000000000000000000000000000000000000000000000000000008152600401610f47906127cb565b60405180910390fd5b60006002811115610f6457610f63612028565b5b8160070160009054906101000a900460ff166002811115610f8857610f87612028565b5b14610fc8576040517f08c379a0000000000000000000000000000000000000000000000000000000008152600401610fbf90612837565b60405180910390fd5b8060070160019054906101000a900460ff161561101a576040517f08c379a0000000000000000000000000000000000000000000000000000000008152600401611011906128a3565b60405180910390fd5b80600301543414611060576040517f08c379a00000000000000000000000000000000000000000000000000000000081526004016110579061290f565b60405180910390fd5b60018160070160016101000a81548160ff02191690831515021790555060018160070160006101000a81548160ff021916908360028111156110a5576110a4612028565b5b0217905550817f932461ba6e96b11d9e6e7794a08b1d4a8e6dfd4f1f2d93be10af806b75431e7460405160405180910390a25050565b600481815481106110eb57600080fd5b906000526020600020016000915090505481565b6060600060048054905090506000810361117057600067ffffffffffffffff81111561112e5761112d611af2565b5b60405190808252806020026020018201604052801561116757816020015b6111546119f6565b81526020019060019003908161114c5790505b509150506113cf565b8083118061117e5750600083145b15611187578092505b60008367ffffffffffffffff8111156111a3576111a2611af2565b5b6040519080825280602002602001820160405280156111dc57816020015b6111c96119f6565b8152602001906001900390816111c15790505b50905060005b848110156113c857600160006004836001876111fe919061292f565b611208919061292f565b8154811061121957611218612750565b5b90600052602060002001548152602001908152602001600020604051806101600160405290816000820160009054906101000a900473ffffffffffffffffffffffffffffffffffffffff1673ffffffffffffffffffffffffffffffffffffffff1673ffffffffffffffffffffffffffffffffffffffff1681526020016001820160009054906101000a900473ffffffffffffffffffffffffffffffffffffffff1673ffffffffffffffffffffffffffffffffffffffff1673ffffffffffffffffffffffffffffffffffffffff16815260200160028201548152602001600382015481526020016004820154815260200160058201548152602001600682015481526020016007820160009054906101000a900460ff16600281111561134157611340612028565b5b600281111561135357611352612028565b5b81526020016007820160019054906101000a900460ff161515151581526020016007820160029054906101000a900460ff161515151581526020016008820154815250508282815181106113aa576113a9612750565b5b602002602001018190525080806113c090612708565b9150506111e2565b5080925050505b919050565b60016020528060005260406000206000915090508060000160009054906101000a900473ffffffffffffffffffffffffffffffffffffffff16908060010160009054906101000a900473ffffffffffffffffffffffffffffffffffffffff16908060020154908060030154908060040154908060050154908060060154908060070160009054906101000a900460ff16908060070160019054906101000a900460ff16908060070160029054906101000a900460ff1690806008015490508b565b61149d6118a3565b8060068190555050565b6114af6118a3565b600073ffffffffffffffffffffffffffffffffffffffff168173ffffffffffffffffffffffffffffffffffffffff16036115215760006040517f1e4fbdf70000000000000000000000000000000000000000000000000000000081526004016115189190611e70565b60405180910390fd5b61152a8161192a565b50565b60025481565b60006007600084815260200190815260200160002054905060006001600083815260200190815260200160002090506001600281111561157657611575612028565b5b8160070160009054906101000a900460ff16600281111561159a57611599612028565b5b146115da576040517f08c379a00000000000000000000000000000000000000000000000000000000081526004016115d1906129d5565b60405180910390fd5b6000600560009054906101000a900473ffffffffffffffffffffffffffffffffffffffff1673ffffffffffffffffffffffffffffffffffffffff1663feaf968c6040518163ffffffff1660e01b815260040160a060405180830381865afa158015611649573d6000803e3d6000fd5b505050506040513d601f19601f8201168201806040525081019061166d9190612a6d565b50505091505060006305f5e100826116859190612b17565b9050600060158660008151811061169f5761169e612750565b5b60200260200101516116b19190612b48565b605a6116bd91906126d4565b90506000606482846116cf9190612b79565b6116d99190612b17565b905080856008018190555060028560070160006101000a81548160ff0219169083600281111561170c5761170b612028565b5b0217905550600386908060018154018082558091505060019003906000526020600020016000909190919091505560008560040154821015611774578560010160009054906101000a900473ffffffffffffffffffffffffffffffffffffffff16905061179c565b8560000160009054906101000a900473ffffffffffffffffffffffffffffffffffffffff1690505b60008173ffffffffffffffffffffffffffffffffffffffff16476040516117c290612bec565b60006040518083038185875af1925050503d80600081146117ff576040519150601f19603f3d011682016040523d82523d6000602084013e611804565b606091505b5050905080611848576040517f08c379a000000000000000000000000000000000000000000000000000000000815260040161183f90612c4d565b60405180910390fd5b8173ffffffffffffffffffffffffffffffffffffffff16887f40a2c1c31e00291be2244bbff6e5c84820729c00b5abda03af3b83580dd426498560405161188f9190611fc3565b60405180910390a350505050505050505050565b6118ab6119ee565b73ffffffffffffffffffffffffffffffffffffffff166118c9610e5a565b73ffffffffffffffffffffffffffffffffffffffff1614611928576118ec6119ee565b6040517f118cdaa700000000000000000000000000000000000000000000000000000000815260040161191f9190611e70565b60405180910390fd5b565b60008060009054906101000a900473ffffffffffffffffffffffffffffffffffffffff169050816000806101000a81548173ffffffffffffffffffffffffffffffffffffffff021916908373ffffffffffffffffffffffffffffffffffffffff1602179055508173ffffffffffffffffffffffffffffffffffffffff168173ffffffffffffffffffffffffffffffffffffffff167f8be0079c531659141344cd1fd0a4f28419497f9722a3daafe3b4186f6b6457e060405160405180910390a35050565b600033905090565b604051806101600160405280600073ffffffffffffffffffffffffffffffffffffffff168152602001600073ffffffffffffffffffffffffffffffffffffffff168152602001600081526020016000815260200160008152602001600081526020016000815260200160006002811115611a7357611a72612028565b5b8152602001600015158152602001600015158152602001600081525090565b6000604051905090565b600080fd5b600080fd5b6000819050919050565b611ab981611aa6565b8114611ac457600080fd5b50565b600081359050611ad681611ab0565b92915050565b600080fd5b6000601f19601f8301169050919050565b7f4e487b7100000000000000000000000000000000000000000000000000000000600052604160045260246000fd5b611b2a82611ae1565b810181811067ffffffffffffffff82111715611b4957611b48611af2565b5b80604052505050565b6000611b5c611a92565b9050611b688282611b21565b919050565b600067ffffffffffffffff821115611b8857611b87611af2565b5b602082029050602081019050919050565b600080fd5b6000611bb1611bac84611b6d565b611b52565b90508083825260208201905060208402830185811115611bd457611bd3611b99565b5b835b81811015611bfd5780611be98882611ac7565b845260208401935050602081019050611bd6565b5050509392505050565b600082601f830112611c1c57611c1b611adc565b5b8135611c2c848260208601611b9e565b91505092915050565b60008060408385031215611c4c57611c4b611a9c565b5b6000611c5a85828601611ac7565b925050602083013567ffffffffffffffff811115611c7b57611c7a611aa1565b5b611c8785828601611c07565b9150509250929050565b600060208284031215611ca757611ca6611a9c565b5b6000611cb584828501611ac7565b91505092915050565b60008115159050919050565b611cd381611cbe565b82525050565b6000602082019050611cee6000830184611cca565b92915050565b600080fd5b60008083601f840112611d0f57611d0e611adc565b5b8235905067ffffffffffffffff811115611d2c57611d2b611cf4565b5b602083019150836001820283011115611d4857611d47611b99565b5b9250929050565b60008060208385031215611d6657611d65611a9c565b5b600083013567ffffffffffffffff811115611d8457611d83611aa1565b5b611d9085828601611cf9565b92509250509250929050565b600073ffffffffffffffffffffffffffffffffffffffff82169050919050565b6000611dc782611d9c565b9050919050565b611dd781611dbc565b8114611de257600080fd5b50565b600081359050611df481611dce565b92915050565b60008060008060808587031215611e1457611e13611a9c565b5b6000611e2287828801611de5565b9450506020611e3387828801611ac7565b9350506040611e4487828801611ac7565b9250506060611e5587828801611ac7565b91505092959194509250565b611e6a81611dbc565b82525050565b6000602082019050611e856000830184611e61565b92915050565b600081519050919050565b600082825260208201905092915050565b60005b83811015611ec5578082015181840152602081019050611eaa565b60008484015250505050565b6000611edc82611e8b565b611ee68185611e96565b9350611ef6818560208601611ea7565b611eff81611ae1565b840191505092915050565b6000604082019050611f1f6000830185611cca565b8181036020830152611f318184611ed1565b90509392505050565b6000819050919050565b6000611f5f611f5a611f5584611d9c565b611f3a565b611d9c565b9050919050565b6000611f7182611f44565b9050919050565b6000611f8382611f66565b9050919050565b611f9381611f78565b82525050565b6000602082019050611fae6000830184611f8a565b92915050565b611fbd81611aa6565b82525050565b6000602082019050611fd86000830184611fb4565b92915050565b600081519050919050565b600082825260208201905092915050565b6000819050602082019050919050565b61201381611dbc565b82525050565b61202281611aa6565b82525050565b7f4e487b7100000000000000000000000000000000000000000000000000000000600052602160045260246000fd5b6003811061206857612067612028565b5b50565b600081905061207982612057565b919050565b60006120898261206b565b9050919050565b6120998161207e565b82525050565b6120a881611cbe565b82525050565b610160820160008201516120c5600085018261200a565b5060208201516120d8602085018261200a565b5060408201516120eb6040850182612019565b5060608201516120fe6060850182612019565b5060808201516121116080850182612019565b5060a082015161212460a0850182612019565b5060c082015161213760c0850182612019565b5060e082015161214a60e0850182612090565b5061010082015161215f61010085018261209f565b5061012082015161217461012085018261209f565b50610140820151612189610140850182612019565b50505050565b600061219b83836120ae565b6101608301905092915050565b6000602082019050919050565b60006121c082611fde565b6121ca8185611fe9565b93506121d583611ffa565b8060005b838110156122065781516121ed888261218f565b97506121f8836121a8565b9250506001810190506121d9565b5085935050505092915050565b6000602082019050818103600083015261222d81846121b5565b905092915050565b61223e8161207e565b82525050565b60006101608201905061225a600083018e611e61565b612267602083018d611e61565b612274604083018c611fb4565b612281606083018b611fb4565b61228e608083018a611fb4565b61229b60a0830189611fb4565b6122a860c0830188611fb4565b6122b560e0830187612235565b6122c3610100830186611cca565b6122d1610120830185611cca565b6122df610140830184611fb4565b9c9b505050505050505050505050565b60006020828403121561230557612304611a9c565b5b600061231384828501611de5565b91505092915050565b60006040820190506123316000830185611e61565b61233e6020830184611e61565b9392505050565b600082825260208201905092915050565b7f44657269766174697665206e6f74206163746976650000000000000000000000600082015250565b600061238c601583612345565b915061239782612356565b602082019050919050565b600060208201905081810360008301526123bb8161237f565b9050919050565b7f436f6e747261637420706572696f64206e6f742079657420656e646564000000600082015250565b60006123f8601d83612345565b9150612403826123c2565b602082019050919050565b60006020820190508181036000830152612427816123eb565b9050919050565b7f536574746c656d656e7420616c726561647920696e6974696174656400000000600082015250565b6000612464601c83612345565b915061246f8261242e565b602082019050919050565b6000602082019050818103600083015261249381612457565b9050919050565b7f537562736372697074696f6e204944206e6f7420736574000000000000000000600082015250565b60006124d0601783612345565b91506124db8261249a565b602082019050919050565b600060208201905081810360008301526124ff816124c3565b9050919050565b6000819050919050565b61251981612506565b82525050565b600067ffffffffffffffff82169050919050565b61253c8161251f565b82525050565b600061ffff82169050919050565b61255981612542565b82525050565b600063ffffffff82169050919050565b6125788161255f565b82525050565b600060a0820190506125936000830188612510565b6125a06020830187612533565b6125ad6040830186612550565b6125ba606083018561256f565b6125c7608083018461256f565b9695505050505050565b6000815190506125e081611ab0565b92915050565b6000602082840312156125fc576125fb611a9c565b5b600061260a848285016125d1565b91505092915050565b7f5072656d69756d206d7573742062652067726561746572207468616e207a657260008201527f6f00000000000000000000000000000000000000000000000000000000000000602082015250565b600061266f602183612345565b915061267a82612613565b604082019050919050565b6000602082019050818103600083015261269e81612662565b9050919050565b7f4e487b7100000000000000000000000000000000000000000000000000000000600052601160045260246000fd5b60006126df82611aa6565b91506126ea83611aa6565b9250828201905080821115612702576127016126a5565b5b92915050565b600061271382611aa6565b91507fffffffffffffffffffffffffffffffffffffffffffffffffffffffffffffffff8203612745576127446126a5565b5b600182019050919050565b7f4e487b7100000000000000000000000000000000000000000000000000000000600052603260045260246000fd5b7f4f6e6c792074686520696e73757265722063616e2066756e6400000000000000600082015250565b60006127b5601983612345565b91506127c08261277f565b602082019050919050565b600060208201905081810360008301526127e4816127a8565b9050919050565b7f436f6e7472616374206e6f742070656e64696e67000000000000000000000000600082015250565b6000612821601483612345565b915061282c826127eb565b602082019050919050565b6000602082019050818103600083015261285081612814565b9050919050565b7f496e737572657220616c72656164792066756e64656400000000000000000000600082015250565b600061288d601683612345565b915061289882612857565b602082019050919050565b600060208201905081810360008301526128bc81612880565b9050919050565b7f496e636f7272656374207061796f757420616d6f756e742073656e7400000000600082015250565b60006128f9601c83612345565b9150612904826128c3565b602082019050919050565b60006020820190508181036000830152612928816128ec565b9050919050565b600061293a82611aa6565b915061294583611aa6565b925082820390508181111561295d5761295c6126a5565b5b92915050565b7f44657269766174697665206e6f742061637469766520666f7220736574746c6560008201527f6d656e7400000000000000000000000000000000000000000000000000000000602082015250565b60006129bf602483612345565b91506129ca82612963565b604082019050919050565b600060208201905081810360008301526129ee816129b2565b9050919050565b600069ffffffffffffffffffff82169050919050565b612a14816129f5565b8114612a1f57600080fd5b50565b600081519050612a3181612a0b565b92915050565b6000819050919050565b612a4a81612a37565b8114612a5557600080fd5b50565b600081519050612a6781612a41565b92915050565b600080600080600060a08688031215612a8957612a88611a9c565b5b6000612a9788828901612a22565b9550506020612aa888828901612a58565b9450506040612ab9888289016125d1565b9350506060612aca888289016125d1565b9250506080612adb88828901612a22565b9150509295509295909350565b7f4e487b7100000000000000000000000000000000000000000000000000000000600052601260045260246000fd5b6000612b2282611aa6565b9150612b2d83611aa6565b925082612b3d57612b3c612ae8565b5b828204905092915050565b6000612b5382611aa6565b9150612b5e83611aa6565b925082612b6e57612b6d612ae8565b5b828206905092915050565b6000612b8482611aa6565b9150612b8f83611aa6565b9250828202612b9d81611aa6565b91508282048414831517612bb457612bb36126a5565b5b5092915050565b600081905092915050565b50565b6000612bd6600083612bbb565b9150612be182612bc6565b600082019050919050565b6000612bf782612bc9565b9150819050919050565b7f4661696c656420746f2073656e642066756e647320746f2077696e6e65720000600082015250565b6000612c37601e83612345565b9150612c4282612c01565b602082019050919050565b60006020820190508181036000830152612c6681612c2a565b905091905056fea264697066735822122083e9039746be525710c857701f6543c16314b3b11d10a61cca38989f5343426b64736f6c63430008140033",
  "linkReferences": {},
  "deployedLinkReferences": {}
}