{
  "_format": "hh-sol-artifact-1",
  "contractName": "Atmofi",
  "sourceName": "contracts/Atmofi.sol",
  "abi": [
    {
      "inputs": [
        {
          "internalType": "address",
          "name": "_priceFeedAddress",
          "type": "address"
        }
      ],
      "stateMutability": "nonpayable",
      "type": "constructor"
    },
    {
      "anonymous": false,
      "inputs": [
        {
          "indexed": true,
          "internalType": "uint256",
          "name": "derivativeId",
          "type": "uint256"
        }
      ],
      "name": "ContractFunded",
      "type": "event"
    },
    {
      "anonymous": false,
      "inputs": [
        {
          "indexed": true,
          "internalType": "uint256",
          "name": "derivativeId",
          "type": "uint256"
        },
        {
          "indexed": false,
          "internalType": "int256",
          "name": "settledTemperature",
          "type": "int256"
        },
        {
          "indexed": false,
          "internalType": "address",
          "name": "winner",
          "type": "address"
        }
      ],
      "name": "ContractSettled",
      "type": "event"
    },
    {
      "anonymous": false,
      "inputs": [
        {
          "indexed": true,
          "internalType": "uint256",
          "name": "derivativeId",
          "type": "uint256"
        },
        {
          "indexed": true,
          "internalType": "address",
          "name": "insurer",
          "type": "address"
        },
        {
          "indexed": true,
          "internalType": "address",
          "name": "beverageCompany",
          "type": "address"
        }
      ],
      "name": "DerivativeCreated",
      "type": "event"
    },
    {
      "inputs": [
        {
          "internalType": "uint256",
          "name": "",
          "type": "uint256"
        }
      ],
      "name": "derivatives",
      "outputs": [
        {
          "internalType": "address",
          "name": "insurer",
          "type": "address"
        },
        {
          "internalType": "address",
          "name": "beverageCompany",
          "type": "address"
        },
        {
          "internalType": "uint256",
          "name": "premiumAmount",
          "type": "uint256"
        },
        {
          "internalType": "uint256",
          "name": "payoutAmount",
          "type": "uint256"
        },
        {
          "internalType": "int256",
          "name": "strikeTemperature",
          "type": "int256"
        },
        {
          "internalType": "uint256",
          "name": "startTimestamp",
          "type": "uint256"
        },
        {
          "internalType": "uint256",
          "name": "endTimestamp",
          "type": "uint256"
        },
        {
          "internalType": "enum Atmofi.DerivativeState",
          "name": "state",
          "type": "uint8"
        },
        {
          "internalType": "bool",
          "name": "insurerFunded",
          "type": "bool"
        },
        {
          "internalType": "bool",
          "name": "beverageCompanyFunded",
          "type": "bool"
        }
      ],
      "stateMutability": "view",
      "type": "function"
    },
    {
      "inputs": [
        {
          "internalType": "uint256",
          "name": "derivativeId",
          "type": "uint256"
        }
      ],
      "name": "fundInsurer",
      "outputs": [],
      "stateMutability": "payable",
      "type": "function"
    },
    {
      "inputs": [
        {
          "internalType": "address",
          "name": "beverageCompany",
          "type": "address"
        },
        {
          "internalType": "uint256",
          "name": "payoutAmount",
          "type": "uint256"
        },
        {
          "internalType": "int256",
          "name": "strikeTemperature",
          "type": "int256"
        },
        {
          "internalType": "uint256",
          "name": "durationSeconds",
          "type": "uint256"
        }
      ],
      "name": "initialize",
      "outputs": [],
      "stateMutability": "payable",
      "type": "function"
    },
    {
      "inputs": [],
      "name": "nextDerivativeId",
      "outputs": [
        {
          "internalType": "uint256",
          "name": "",
          "type": "uint256"
        }
      ],
      "stateMutability": "view",
      "type": "function"
    },
    {
      "inputs": [],
      "name": "priceFeedContractAddress",
      "outputs": [
        {
          "internalType": "address",
          "name": "",
          "type": "address"
        }
      ],
      "stateMutability": "view",
      "type": "function"
    },
    {
      "inputs": [
        {
          "internalType": "uint256",
          "name": "derivativeId",
          "type": "uint256"
        }
      ],
      "name": "settleContract",
      "outputs": [],
      "stateMutability": "nonpayable",
      "type": "function"
    }
  ],
  "bytecode": "0x60c06040523480156200001157600080fd5b50604051620013fe380380620013fe833981810160405281019062000037919062000110565b8073ffffffffffffffffffffffffffffffffffffffff1660808173ffffffffffffffffffffffffffffffffffffffff16815250508073ffffffffffffffffffffffffffffffffffffffff1660a08173ffffffffffffffffffffffffffffffffffffffff16815250505062000142565b600080fd5b600073ffffffffffffffffffffffffffffffffffffffff82169050919050565b6000620000d882620000ab565b9050919050565b620000ea81620000cb565b8114620000f657600080fd5b50565b6000815190506200010a81620000df565b92915050565b600060208284031215620001295762000128620000a6565b5b60006200013984828501620000f9565b91505092915050565b60805160a0516112966200016860003960006104360152600061022f01526112966000f3fe6080604052600436106100555760003560e01c80632577929b1461005a5780636c96d11f1461008357806399926589146100ae5780639b4c0f27146100ca578063c0046e39146100e6578063fac3fa3d1461012c575b600080fd5b34801561006657600080fd5b50610081600480360381019061007c9190610a28565b610157565b005b34801561008f57600080fd5b50610098610434565b6040516100a59190610a96565b60405180910390f35b6100c860048036038101906100c39190610b13565b610458565b005b6100e460048036038101906100df9190610a28565b6106f9565b005b3480156100f257600080fd5b5061010d60048036038101906101089190610a28565b61092c565b6040516101239a99989796959493929190610c2a565b60405180910390f35b34801561013857600080fd5b506101416109e7565b60405161014e9190610cc6565b60405180910390f35b600080600083815260200190815260200160002090506001600281111561018157610180610b98565b5b8160070160009054906101000a900460ff1660028111156101a5576101a4610b98565b5b146101e5576040517f08c379a00000000000000000000000000000000000000000000000000000000081526004016101dc90610d3e565b60405180910390fd5b8060060154421161022b576040517f08c379a000000000000000000000000000000000000000000000000000000000815260040161022290610daa565b60405180910390fd5b60007f000000000000000000000000000000000000000000000000000000000000000073ffffffffffffffffffffffffffffffffffffffff1663feaf968c6040518163ffffffff1660e01b815260040160a060405180830381865afa158015610298573d6000803e3d6000fd5b505050506040513d601f19601f820116820180604052508101906102bc9190610e36565b50505091505060006305f5e100826102d49190610f0f565b905060028360070160006101000a81548160ff021916908360028111156102fe576102fd610b98565b5b021790555060008360040154821215610384578360010160009054906101000a900473ffffffffffffffffffffffffffffffffffffffff1690508073ffffffffffffffffffffffffffffffffffffffff166108fc479081150290604051600060405180830381858888f1935050505015801561037e573d6000803e3d6000fd5b506103f3565b8360000160009054906101000a900473ffffffffffffffffffffffffffffffffffffffff1690508073ffffffffffffffffffffffffffffffffffffffff166108fc479081150290604051600060405180830381858888f193505050501580156103f1573d6000803e3d6000fd5b505b847f94faa0c1cb78f1435e7c6be0b55470d53ae8e5043d5338b2fc80042db1a61fa98383604051610425929190610f79565b60405180910390a25050505050565b7f000000000000000000000000000000000000000000000000000000000000000081565b6000341161049b576040517f08c379a000000000000000000000000000000000000000000000000000000000815260040161049290611014565b60405180910390fd5b600060015490506040518061014001604052803373ffffffffffffffffffffffffffffffffffffffff1681526020018673ffffffffffffffffffffffffffffffffffffffff168152602001348152602001858152602001848152602001428152602001834261050a9190611034565b81526020016000600281111561052357610522610b98565b5b81526020016000151581526020016001151581525060008083815260200190815260200160002060008201518160000160006101000a81548173ffffffffffffffffffffffffffffffffffffffff021916908373ffffffffffffffffffffffffffffffffffffffff16021790555060208201518160010160006101000a81548173ffffffffffffffffffffffffffffffffffffffff021916908373ffffffffffffffffffffffffffffffffffffffff16021790555060408201518160020155606082015181600301556080820151816004015560a0820151816005015560c0820151816006015560e08201518160070160006101000a81548160ff0219169083600281111561063557610634610b98565b5b02179055506101008201518160070160016101000a81548160ff0219169083151502179055506101208201518160070160026101000a81548160ff0219169083151502179055509050506001600081548092919061069290611068565b91905055508473ffffffffffffffffffffffffffffffffffffffff163373ffffffffffffffffffffffffffffffffffffffff16827ff9df1cdb506b6ebae5111bd564c04f981ee86673381312b184c8141566d256b460405160405180910390a45050505050565b600080600083815260200190815260200160002090508060000160009054906101000a900473ffffffffffffffffffffffffffffffffffffffff1673ffffffffffffffffffffffffffffffffffffffff163373ffffffffffffffffffffffffffffffffffffffff16146107a1576040517f08c379a0000000000000000000000000000000000000000000000000000000008152600401610798906110fc565b60405180910390fd5b600060028111156107b5576107b4610b98565b5b8160070160009054906101000a900460ff1660028111156107d9576107d8610b98565b5b14610819576040517f08c379a000000000000000000000000000000000000000000000000000000000815260040161081090611168565b60405180910390fd5b8060070160019054906101000a900460ff161561086b576040517f08c379a0000000000000000000000000000000000000000000000000000000008152600401610862906111d4565b60405180910390fd5b806003015434146108b1576040517f08c379a00000000000000000000000000000000000000000000000000000000081526004016108a890611240565b60405180910390fd5b60018160070160016101000a81548160ff02191690831515021790555060018160070160006101000a81548160ff021916908360028111156108f6576108f5610b98565b5b0217905550817f932461ba6e96b11d9e6e7794a08b1d4a8e6dfd4f1f2d93be10af806b75431e7460405160405180910390a25050565b60006020528060005260406000206000915090508060000160009054906101000a900473ffffffffffffffffffffffffffffffffffffffff16908060010160009054906101000a900473ffffffffffffffffffffffffffffffffffffffff16908060020154908060030154908060040154908060050154908060060154908060070160009054906101000a900460ff16908060070160019054906101000a900460ff16908060070160029054906101000a900460ff1690508a565b60015481565b600080fd5b6000819050919050565b610a05816109f2565b8114610a1057600080fd5b50565b600081359050610a22816109fc565b92915050565b600060208284031215610a3e57610a3d6109ed565b5b6000610a4c84828501610a13565b91505092915050565b600073ffffffffffffffffffffffffffffffffffffffff82169050919050565b6000610a8082610a55565b9050919050565b610a9081610a75565b82525050565b6000602082019050610aab6000830184610a87565b92915050565b610aba81610a75565b8114610ac557600080fd5b50565b600081359050610ad781610ab1565b92915050565b6000819050919050565b610af081610add565b8114610afb57600080fd5b50565b600081359050610b0d81610ae7565b92915050565b60008060008060808587031215610b2d57610b2c6109ed565b5b6000610b3b87828801610ac8565b9450506020610b4c87828801610a13565b9350506040610b5d87828801610afe565b9250506060610b6e87828801610a13565b91505092959194509250565b610b83816109f2565b82525050565b610b9281610add565b82525050565b7f4e487b7100000000000000000000000000000000000000000000000000000000600052602160045260246000fd5b60038110610bd857610bd7610b98565b5b50565b6000819050610be982610bc7565b919050565b6000610bf982610bdb565b9050919050565b610c0981610bee565b82525050565b60008115159050919050565b610c2481610c0f565b82525050565b600061014082019050610c40600083018d610a87565b610c4d602083018c610a87565b610c5a604083018b610b7a565b610c67606083018a610b7a565b610c746080830189610b89565b610c8160a0830188610b7a565b610c8e60c0830187610b7a565b610c9b60e0830186610c00565b610ca9610100830185610c1b565b610cb7610120830184610c1b565b9b9a5050505050505050505050565b6000602082019050610cdb6000830184610b7a565b92915050565b600082825260208201905092915050565b7f436f6e7472616374206e6f742066756e64656400000000000000000000000000600082015250565b6000610d28601383610ce1565b9150610d3382610cf2565b602082019050919050565b60006020820190508181036000830152610d5781610d1b565b9050919050565b7f436f6e747261637420706572696f64206e6f742079657420656e646564000000600082015250565b6000610d94601d83610ce1565b9150610d9f82610d5e565b602082019050919050565b60006020820190508181036000830152610dc381610d87565b9050919050565b600069ffffffffffffffffffff82169050919050565b610de981610dca565b8114610df457600080fd5b50565b600081519050610e0681610de0565b92915050565b600081519050610e1b81610ae7565b92915050565b600081519050610e30816109fc565b92915050565b600080600080600060a08688031215610e5257610e516109ed565b5b6000610e6088828901610df7565b9550506020610e7188828901610e0c565b9450506040610e8288828901610e21565b9350506060610e9388828901610e21565b9250506080610ea488828901610df7565b9150509295509295909350565b7f4e487b7100000000000000000000000000000000000000000000000000000000600052601260045260246000fd5b7f4e487b7100000000000000000000000000000000000000000000000000000000600052601160045260246000fd5b6000610f1a82610add565b9150610f2583610add565b925082610f3557610f34610eb1565b5b600160000383147f800000000000000000000000000000000000000000000000000000000000000083141615610f6e57610f6d610ee0565b5b828205905092915050565b6000604082019050610f8e6000830185610b89565b610f9b6020830184610a87565b9392505050565b7f5072656d69756d206d7573742062652067726561746572207468616e207a657260008201527f6f00000000000000000000000000000000000000000000000000000000000000602082015250565b6000610ffe602183610ce1565b915061100982610fa2565b604082019050919050565b6000602082019050818103600083015261102d81610ff1565b9050919050565b600061103f826109f2565b915061104a836109f2565b925082820190508082111561106257611061610ee0565b5b92915050565b6000611073826109f2565b91507fffffffffffffffffffffffffffffffffffffffffffffffffffffffffffffffff82036110a5576110a4610ee0565b5b600182019050919050565b7f4f6e6c792074686520696e73757265722063616e2066756e6400000000000000600082015250565b60006110e6601983610ce1565b91506110f1826110b0565b602082019050919050565b60006020820190508181036000830152611115816110d9565b9050919050565b7f436f6e7472616374206e6f742070656e64696e67000000000000000000000000600082015250565b6000611152601483610ce1565b915061115d8261111c565b602082019050919050565b6000602082019050818103600083015261118181611145565b9050919050565b7f496e737572657220616c72656164792066756e64656400000000000000000000600082015250565b60006111be601683610ce1565b91506111c982611188565b602082019050919050565b600060208201905081810360008301526111ed816111b1565b9050919050565b7f496e636f7272656374207061796f757420616d6f756e742073656e7400000000600082015250565b600061122a601c83610ce1565b9150611235826111f4565b602082019050919050565b600060208201905081810360008301526112598161121d565b905091905056fea2646970667358221220074fa5a18f9883aac71a97781ea62a3e47ede6b60ff38098aff2a91904b0afbc64736f6c63430008140033",
  "linkReferences": {},
  "deployedLinkReferences": {}
}