{
  "_format": "hh-sol-artifact-1",
  "contractName": "Atmofi",
  "sourceName": "contracts/Atmofi.sol",
  "abi": [
    {
      "inputs": [
        {
          "internalType": "address",
          "name": "_priceFeedAddress",
          "type": "address"
        },
        {
          "internalType": "uint256",
          "name": "_vrfSubscriptionId",
          "type": "uint256"
        }
      ],
      "stateMutability": "nonpayable",
      "type": "constructor"
    },
    {
      "inputs": [
        {
          "internalType": "address",
          "name": "have",
          "type": "address"
        },
        {
          "internalType": "address",
          "name": "want",
          "type": "address"
        }
      ],
      "name": "OnlyCoordinatorCanFulfill",
      "type": "error"
    },
    {
      "anonymous": false,
      "inputs": [
        {
          "indexed": true,
          "internalType": "uint256",
          "name": "derivativeId",
          "type": "uint256"
        }
      ],
      "name": "ContractFunded",
      "type": "event"
    },
    {
      "anonymous": false,
      "inputs": [
        {
          "indexed": true,
          "internalType": "uint256",
          "name": "derivativeId",
          "type": "uint256"
        },
        {
          "indexed": true,
          "internalType": "address",
          "name": "winner",
          "type": "address"
        },
        {
          "indexed": false,
          "internalType": "uint256",
          "name": "settledTemperature",
          "type": "uint256"
        }
      ],
      "name": "ContractSettled",
      "type": "event"
    },
    {
      "anonymous": false,
      "inputs": [
        {
          "indexed": true,
          "internalType": "uint256",
          "name": "derivativeId",
          "type": "uint256"
        },
        {
          "indexed": true,
          "internalType": "address",
          "name": "insurer",
          "type": "address"
        },
        {
          "indexed": true,
          "internalType": "address",
          "name": "beverageCompany",
          "type": "address"
        },
        {
          "indexed": false,
          "internalType": "uint256",
          "name": "strikeTemperature",
          "type": "uint256"
        }
      ],
      "name": "DerivativeCreated",
      "type": "event"
    },
    {
      "anonymous": false,
      "inputs": [
        {
          "indexed": true,
          "internalType": "uint256",
          "name": "requestId",
          "type": "uint256"
        },
        {
          "indexed": true,
          "internalType": "uint256",
          "name": "derivativeId",
          "type": "uint256"
        }
      ],
      "name": "RandomnessRequested",
      "type": "event"
    },
    {
      "inputs": [
        {
          "internalType": "uint256",
          "name": "",
          "type": "uint256"
        }
      ],
      "name": "allDerivativeIds",
      "outputs": [
        {
          "internalType": "uint256",
          "name": "",
          "type": "uint256"
        }
      ],
      "stateMutability": "view",
      "type": "function"
    },
    {
      "inputs": [
        {
          "internalType": "uint256",
          "name": "",
          "type": "uint256"
        }
      ],
      "name": "derivativeSettlementInitiated",
      "outputs": [
        {
          "internalType": "bool",
          "name": "",
          "type": "bool"
        }
      ],
      "stateMutability": "view",
      "type": "function"
    },
    {
      "inputs": [
        {
          "internalType": "uint256",
          "name": "",
          "type": "uint256"
        }
      ],
      "name": "derivatives",
      "outputs": [
        {
          "internalType": "address",
          "name": "insurer",
          "type": "address"
        },
        {
          "internalType": "address",
          "name": "beverageCompany",
          "type": "address"
        },
        {
          "internalType": "uint256",
          "name": "premiumAmount",
          "type": "uint256"
        },
        {
          "internalType": "uint256",
          "name": "payoutAmount",
          "type": "uint256"
        },
        {
          "internalType": "uint256",
          "name": "strikeTemperature",
          "type": "uint256"
        },
        {
          "internalType": "uint256",
          "name": "startTimestamp",
          "type": "uint256"
        },
        {
          "internalType": "uint256",
          "name": "endTimestamp",
          "type": "uint256"
        },
        {
          "internalType": "enum Atmofi.DerivativeState",
          "name": "state",
          "type": "uint8"
        },
        {
          "internalType": "bool",
          "name": "insurerFunded",
          "type": "bool"
        },
        {
          "internalType": "bool",
          "name": "beverageCompanyFunded",
          "type": "bool"
        },
        {
          "internalType": "uint256",
          "name": "settledTemperature",
          "type": "uint256"
        }
      ],
      "stateMutability": "view",
      "type": "function"
    },
    {
      "inputs": [
        {
          "internalType": "uint256",
          "name": "derivativeId",
          "type": "uint256"
        }
      ],
      "name": "fundInsurer",
      "outputs": [],
      "stateMutability": "payable",
      "type": "function"
    },
    {
      "inputs": [
        {
          "internalType": "uint256",
          "name": "limit",
          "type": "uint256"
        }
      ],
      "name": "getDerivativeHistory",
      "outputs": [
        {
          "components": [
            {
              "internalType": "address",
              "name": "insurer",
              "type": "address"
            },
            {
              "internalType": "address",
              "name": "beverageCompany",
              "type": "address"
            },
            {
              "internalType": "uint256",
              "name": "premiumAmount",
              "type": "uint256"
            },
            {
              "internalType": "uint256",
              "name": "payoutAmount",
              "type": "uint256"
            },
            {
              "internalType": "uint256",
              "name": "strikeTemperature",
              "type": "uint256"
            },
            {
              "internalType": "uint256",
              "name": "startTimestamp",
              "type": "uint256"
            },
            {
              "internalType": "uint256",
              "name": "endTimestamp",
              "type": "uint256"
            },
            {
              "internalType": "enum Atmofi.DerivativeState",
              "name": "state",
              "type": "uint8"
            },
            {
              "internalType": "bool",
              "name": "insurerFunded",
              "type": "bool"
            },
            {
              "internalType": "bool",
              "name": "beverageCompanyFunded",
              "type": "bool"
            },
            {
              "internalType": "uint256",
              "name": "settledTemperature",
              "type": "uint256"
            }
          ],
          "internalType": "struct Atmofi.Derivative[]",
          "name": "",
          "type": "tuple[]"
        }
      ],
      "stateMutability": "view",
      "type": "function"
    },
    {
      "inputs": [
        {
          "internalType": "address",
          "name": "beverageCompany",
          "type": "address"
        },
        {
          "internalType": "uint256",
          "name": "payoutAmount",
          "type": "uint256"
        },
        {
          "internalType": "uint256",
          "name": "strikeTemperature",
          "type": "uint256"
        },
        {
          "internalType": "uint256",
          "name": "durationSeconds",
          "type": "uint256"
        }
      ],
      "name": "initialize",
      "outputs": [],
      "stateMutability": "payable",
      "type": "function"
    },
    {
      "inputs": [],
      "name": "nextDerivativeId",
      "outputs": [
        {
          "internalType": "uint256",
          "name": "",
          "type": "uint256"
        }
      ],
      "stateMutability": "view",
      "type": "function"
    },
    {
      "inputs": [],
      "name": "priceFeed",
      "outputs": [
        {
          "internalType": "contract AggregatorV3Interface",
          "name": "",
          "type": "address"
        }
      ],
      "stateMutability": "view",
      "type": "function"
    },
    {
      "inputs": [],
      "name": "priceFeedContractAddress",
      "outputs": [
        {
          "internalType": "address",
          "name": "",
          "type": "address"
        }
      ],
      "stateMutability": "view",
      "type": "function"
    },
    {
      "inputs": [
        {
          "internalType": "uint256",
          "name": "requestId",
          "type": "uint256"
        },
        {
          "internalType": "uint256[]",
          "name": "randomWords",
          "type": "uint256[]"
        }
      ],
      "name": "rawFulfillRandomWords",
      "outputs": [],
      "stateMutability": "nonpayable",
      "type": "function"
    },
    {
      "inputs": [
        {
          "internalType": "uint256",
          "name": "derivativeId",
          "type": "uint256"
        }
      ],
      "name": "settleContract",
      "outputs": [],
      "stateMutability": "nonpayable",
      "type": "function"
    },
    {
      "inputs": [
        {
          "internalType": "uint256",
          "name": "",
          "type": "uint256"
        }
      ],
      "name": "settledDerivativeIds",
      "outputs": [
        {
          "internalType": "uint256",
          "name": "",
          "type": "uint256"
        }
      ],
      "stateMutability": "view",
      "type": "function"
    },
    {
      "inputs": [
        {
          "internalType": "uint256",
          "name": "",
          "type": "uint256"
        }
      ],
      "name": "vrfRequestToDerivativeId",
      "outputs": [
        {
          "internalType": "uint256",
          "name": "",
          "type": "uint256"
        }
      ],
      "stateMutability": "view",
      "type": "function"
    }
  ],
  "bytecode": "0x6101206040523480156200001257600080fd5b506040516200270138038062002701833981810160405281019062000038919062000220565b738103b0a8a00be2ddc778e6e7eaa21791cd3646258073ffffffffffffffffffffffffffffffffffffffff1660808173ffffffffffffffffffffffffffffffffffffffff16815250505081600460006101000a81548173ffffffffffffffffffffffffffffffffffffffff021916908373ffffffffffffffffffffffffffffffffffffffff1602179055508173ffffffffffffffffffffffffffffffffffffffff1660a08173ffffffffffffffffffffffffffffffffffffffff1681525050738103b0a8a00be2ddc778e6e7eaa21791cd36462573ffffffffffffffffffffffffffffffffffffffff1660c08173ffffffffffffffffffffffffffffffffffffffff16815250507f474e34a077df58807dbe9c96d3c009b23b3c6d0cce433e59bbf5b34f823bc56c60001b60e08181525050806101008181525050505062000267565b600080fd5b600073ffffffffffffffffffffffffffffffffffffffff82169050919050565b6000620001ad8262000180565b9050919050565b620001bf81620001a0565b8114620001cb57600080fd5b50565b600081519050620001df81620001b4565b92915050565b6000819050919050565b620001fa81620001e5565b81146200020657600080fd5b50565b6000815190506200021a81620001ef565b92915050565b600080604083850312156200023a57620002396200017b565b5b60006200024a85828601620001ce565b92505060206200025d8582860162000209565b9150509250929050565b60805160a05160c05160e0516101005161244e620002b360003960006105ec015260006105cb0152600061058f015260006109ac01526000818161034c01526103a0015261244e6000f3fe6080604052600436106100c25760003560e01c80637b1fcf9f1161007f578063a529303a11610059578063a529303a1461025e578063b6a251261461029b578063c0046e39146102d8578063fac3fa3d1461031f576100c2565b80637b1fcf9f146101c8578063947b1bde146102055780639b4c0f2714610242576100c2565b80631fe543e3146100c757806322e4fdf8146100f05780632577929b1461012d5780634ec81af1146101565780636c96d11f14610172578063741bef1a1461019d575b600080fd5b3480156100d357600080fd5b506100ee60048036038101906100e991906115d0565b61034a565b005b3480156100fc57600080fd5b506101176004803603810190610112919061162c565b61040a565b6040516101249190611674565b60405180910390f35b34801561013957600080fd5b50610154600480360381019061014f919061162c565b61042a565b005b610170600480360381019061016b91906116ed565b6106c3565b005b34801561017e57600080fd5b506101876109aa565b6040516101949190611763565b60405180910390f35b3480156101a957600080fd5b506101b26109ce565b6040516101bf91906117dd565b60405180910390f35b3480156101d457600080fd5b506101ef60048036038101906101ea919061162c565b6109f4565b6040516101fc9190611807565b60405180910390f35b34801561021157600080fd5b5061022c6004803603810190610227919061162c565b610a0c565b6040516102399190611807565b60405180910390f35b61025c6004803603810190610257919061162c565b610a30565b005b34801561026a57600080fd5b506102856004803603810190610280919061162c565b610c63565b6040516102929190611807565b60405180910390f35b3480156102a757600080fd5b506102c260048036038101906102bd919061162c565b610c87565b6040516102cf9190611a57565b60405180910390f35b3480156102e457600080fd5b506102ff60048036038101906102fa919061162c565b610f5b565b6040516103169b9a99989796959493929190611a88565b60405180910390f35b34801561032b57600080fd5b5061033461101c565b6040516103419190611807565b60405180910390f35b7f000000000000000000000000000000000000000000000000000000000000000073ffffffffffffffffffffffffffffffffffffffff163373ffffffffffffffffffffffffffffffffffffffff16146103fc57337f00000000000000000000000000000000000000000000000000000000000000006040517f1cf993f40000000000000000000000000000000000000000000000000000000081526004016103f3929190611b33565b60405180910390fd5b6104068282611022565b5050565b60066020528060005260406000206000915054906101000a900460ff1681565b60008060008381526020019081526020016000209050600160028111156104545761045361186c565b5b8160070160009054906101000a900460ff1660028111156104785761047761186c565b5b146104b8576040517f08c379a00000000000000000000000000000000000000000000000000000000081526004016104af90611bb9565b60405180910390fd5b806006015442116104fe576040517f08c379a00000000000000000000000000000000000000000000000000000000081526004016104f590611c25565b60405180910390fd5b6006600083815260200190815260200160002060009054906101000a900460ff161561055f576040517f08c379a000000000000000000000000000000000000000000000000000000000815260040161055690611c91565b60405180910390fd5b60016006600084815260200190815260200160002060006101000a81548160ff02191690831515021790555060007f000000000000000000000000000000000000000000000000000000000000000073ffffffffffffffffffffffffffffffffffffffff16635d3b1d307f00000000000000000000000000000000000000000000000000000000000000007f00000000000000000000000000000000000000000000000000000000000000006003620186a060016040518663ffffffff1660e01b8152600401610633959493929190611d29565b6020604051808303816000875af1158015610652573d6000803e3d6000fd5b505050506040513d601f19601f820116820180604052508101906106769190611d91565b905082600560008381526020019081526020016000208190555082817f3d94fecedaa4f90b8bd459797adb95f5bb11426025c5541390d9ccc1ad1b60a160405160405180910390a3505050565b60003411610706576040517f08c379a00000000000000000000000000000000000000000000000000000000081526004016106fd90611e30565b60405180910390fd5b600060015490506040518061016001604052803373ffffffffffffffffffffffffffffffffffffffff1681526020018673ffffffffffffffffffffffffffffffffffffffff16815260200134815260200185815260200184815260200142815260200183426107759190611e7f565b81526020016000600281111561078e5761078d61186c565b5b8152602001600015158152602001600115158152602001600081525060008083815260200190815260200160002060008201518160000160006101000a81548173ffffffffffffffffffffffffffffffffffffffff021916908373ffffffffffffffffffffffffffffffffffffffff16021790555060208201518160010160006101000a81548173ffffffffffffffffffffffffffffffffffffffff021916908373ffffffffffffffffffffffffffffffffffffffff16021790555060408201518160020155606082015181600301556080820151816004015560a0820151816005015560c0820151816006015560e08201518160070160006101000a81548160ff021916908360028111156108a7576108a661186c565b5b02179055506101008201518160070160016101000a81548160ff0219169083151502179055506101208201518160070160026101000a81548160ff02191690831515021790555061014082015181600801559050506001600081548092919061090f90611eb3565b919050555060038190806001815401808255809150506001900390600052602060002001600090919091909150558473ffffffffffffffffffffffffffffffffffffffff163373ffffffffffffffffffffffffffffffffffffffff16827f7ea4a1419eb9810bb15a3c4cd2feb13f1100abad058c5a5e314bf72deb3b87cd8660405161099b9190611807565b60405180910390a45050505050565b7f000000000000000000000000000000000000000000000000000000000000000081565b600460009054906101000a900473ffffffffffffffffffffffffffffffffffffffff1681565b60056020528060005260406000206000915090505481565b60028181548110610a1c57600080fd5b906000526020600020016000915090505481565b600080600083815260200190815260200160002090508060000160009054906101000a900473ffffffffffffffffffffffffffffffffffffffff1673ffffffffffffffffffffffffffffffffffffffff163373ffffffffffffffffffffffffffffffffffffffff1614610ad8576040517f08c379a0000000000000000000000000000000000000000000000000000000008152600401610acf90611f47565b60405180910390fd5b60006002811115610aec57610aeb61186c565b5b8160070160009054906101000a900460ff166002811115610b1057610b0f61186c565b5b14610b50576040517f08c379a0000000000000000000000000000000000000000000000000000000008152600401610b4790611fb3565b60405180910390fd5b8060070160019054906101000a900460ff1615610ba2576040517f08c379a0000000000000000000000000000000000000000000000000000000008152600401610b999061201f565b60405180910390fd5b80600301543414610be8576040517f08c379a0000000000000000000000000000000000000000000000000000000008152600401610bdf9061208b565b60405180910390fd5b60018160070160016101000a81548160ff02191690831515021790555060018160070160006101000a81548160ff02191690836002811115610c2d57610c2c61186c565b5b0217905550817f932461ba6e96b11d9e6e7794a08b1d4a8e6dfd4f1f2d93be10af806b75431e7460405160405180910390a25050565b60038181548110610c7357600080fd5b906000526020600020016000915090505481565b60606000600380549050905060008103610cf857600067ffffffffffffffff811115610cb657610cb561148d565b5b604051908082528060200260200182016040528015610cef57816020015b610cdc611391565b815260200190600190039081610cd45790505b50915050610f56565b80831180610d065750600083145b15610d0f578092505b60008367ffffffffffffffff811115610d2b57610d2a61148d565b5b604051908082528060200260200182016040528015610d6457816020015b610d51611391565b815260200190600190039081610d495790505b50905060005b84811015610f4f57600080600383600187610d8591906120ab565b610d8f91906120ab565b81548110610da057610d9f6120df565b5b90600052602060002001548152602001908152602001600020604051806101600160405290816000820160009054906101000a900473ffffffffffffffffffffffffffffffffffffffff1673ffffffffffffffffffffffffffffffffffffffff1673ffffffffffffffffffffffffffffffffffffffff1681526020016001820160009054906101000a900473ffffffffffffffffffffffffffffffffffffffff1673ffffffffffffffffffffffffffffffffffffffff1673ffffffffffffffffffffffffffffffffffffffff16815260200160028201548152602001600382015481526020016004820154815260200160058201548152602001600682015481526020016007820160009054906101000a900460ff166002811115610ec857610ec761186c565b5b6002811115610eda57610ed961186c565b5b81526020016007820160019054906101000a900460ff161515151581526020016007820160029054906101000a900460ff16151515158152602001600882015481525050828281518110610f3157610f306120df565b5b60200260200101819052508080610f4790611eb3565b915050610d6a565b5080925050505b919050565b60006020528060005260406000206000915090508060000160009054906101000a900473ffffffffffffffffffffffffffffffffffffffff16908060010160009054906101000a900473ffffffffffffffffffffffffffffffffffffffff16908060020154908060030154908060040154908060050154908060060154908060070160009054906101000a900460ff16908060070160019054906101000a900460ff16908060070160029054906101000a900460ff1690806008015490508b565b60015481565b60006005600084815260200190815260200160002054905060008060008381526020019081526020016000209050600160028111156110645761106361186c565b5b8160070160009054906101000a900460ff1660028111156110885761108761186c565b5b146110c8576040517f08c379a00000000000000000000000000000000000000000000000000000000081526004016110bf90612180565b60405180910390fd5b6000600460009054906101000a900473ffffffffffffffffffffffffffffffffffffffff1673ffffffffffffffffffffffffffffffffffffffff1663feaf968c6040518163ffffffff1660e01b815260040160a060405180830381865afa158015611137573d6000803e3d6000fd5b505050506040513d601f19601f8201168201806040525081019061115b9190612218565b50505091505060006305f5e1008261117391906122c2565b9050600060158660008151811061118d5761118c6120df565b5b602002602001015161119f91906122f3565b605a6111ab9190611e7f565b90506000606482846111bd9190612324565b6111c791906122c2565b905080856008018190555060028560070160006101000a81548160ff021916908360028111156111fa576111f961186c565b5b0217905550600286908060018154018082558091505060019003906000526020600020016000909190919091505560008560040154821015611262578560010160009054906101000a900473ffffffffffffffffffffffffffffffffffffffff16905061128a565b8560000160009054906101000a900473ffffffffffffffffffffffffffffffffffffffff1690505b60008173ffffffffffffffffffffffffffffffffffffffff16476040516112b090612397565b60006040518083038185875af1925050503d80600081146112ed576040519150601f19603f3d011682016040523d82523d6000602084013e6112f2565b606091505b5050905080611336576040517f08c379a000000000000000000000000000000000000000000000000000000000815260040161132d906123f8565b60405180910390fd5b8173ffffffffffffffffffffffffffffffffffffffff16887f40a2c1c31e00291be2244bbff6e5c84820729c00b5abda03af3b83580dd426498560405161137d9190611807565b60405180910390a350505050505050505050565b604051806101600160405280600073ffffffffffffffffffffffffffffffffffffffff168152602001600073ffffffffffffffffffffffffffffffffffffffff16815260200160008152602001600081526020016000815260200160008152602001600081526020016000600281111561140e5761140d61186c565b5b8152602001600015158152602001600015158152602001600081525090565b6000604051905090565b600080fd5b600080fd5b6000819050919050565b61145481611441565b811461145f57600080fd5b50565b6000813590506114718161144b565b92915050565b600080fd5b6000601f19601f8301169050919050565b7f4e487b7100000000000000000000000000000000000000000000000000000000600052604160045260246000fd5b6114c58261147c565b810181811067ffffffffffffffff821117156114e4576114e361148d565b5b80604052505050565b60006114f761142d565b905061150382826114bc565b919050565b600067ffffffffffffffff8211156115235761152261148d565b5b602082029050602081019050919050565b600080fd5b600061154c61154784611508565b6114ed565b9050808382526020820190506020840283018581111561156f5761156e611534565b5b835b8181101561159857806115848882611462565b845260208401935050602081019050611571565b5050509392505050565b600082601f8301126115b7576115b6611477565b5b81356115c7848260208601611539565b91505092915050565b600080604083850312156115e7576115e6611437565b5b60006115f585828601611462565b925050602083013567ffffffffffffffff8111156116165761161561143c565b5b611622858286016115a2565b9150509250929050565b60006020828403121561164257611641611437565b5b600061165084828501611462565b91505092915050565b60008115159050919050565b61166e81611659565b82525050565b60006020820190506116896000830184611665565b92915050565b600073ffffffffffffffffffffffffffffffffffffffff82169050919050565b60006116ba8261168f565b9050919050565b6116ca816116af565b81146116d557600080fd5b50565b6000813590506116e7816116c1565b92915050565b6000806000806080858703121561170757611706611437565b5b6000611715878288016116d8565b945050602061172687828801611462565b935050604061173787828801611462565b925050606061174887828801611462565b91505092959194509250565b61175d816116af565b82525050565b60006020820190506117786000830184611754565b92915050565b6000819050919050565b60006117a361179e6117998461168f565b61177e565b61168f565b9050919050565b60006117b582611788565b9050919050565b60006117c7826117aa565b9050919050565b6117d7816117bc565b82525050565b60006020820190506117f260008301846117ce565b92915050565b61180181611441565b82525050565b600060208201905061181c60008301846117f8565b92915050565b600081519050919050565b600082825260208201905092915050565b6000819050602082019050919050565b611857816116af565b82525050565b61186681611441565b82525050565b7f4e487b7100000000000000000000000000000000000000000000000000000000600052602160045260246000fd5b600381106118ac576118ab61186c565b5b50565b60008190506118bd8261189b565b919050565b60006118cd826118af565b9050919050565b6118dd816118c2565b82525050565b6118ec81611659565b82525050565b61016082016000820151611909600085018261184e565b50602082015161191c602085018261184e565b50604082015161192f604085018261185d565b506060820151611942606085018261185d565b506080820151611955608085018261185d565b5060a082015161196860a085018261185d565b5060c082015161197b60c085018261185d565b5060e082015161198e60e08501826118d4565b506101008201516119a36101008501826118e3565b506101208201516119b86101208501826118e3565b506101408201516119cd61014085018261185d565b50505050565b60006119df83836118f2565b6101608301905092915050565b6000602082019050919050565b6000611a0482611822565b611a0e818561182d565b9350611a198361183e565b8060005b83811015611a4a578151611a3188826119d3565b9750611a3c836119ec565b925050600181019050611a1d565b5085935050505092915050565b60006020820190508181036000830152611a7181846119f9565b905092915050565b611a82816118c2565b82525050565b600061016082019050611a9e600083018e611754565b611aab602083018d611754565b611ab8604083018c6117f8565b611ac5606083018b6117f8565b611ad2608083018a6117f8565b611adf60a08301896117f8565b611aec60c08301886117f8565b611af960e0830187611a79565b611b07610100830186611665565b611b15610120830185611665565b611b236101408301846117f8565b9c9b505050505050505050505050565b6000604082019050611b486000830185611754565b611b556020830184611754565b9392505050565b600082825260208201905092915050565b7f44657269766174697665206e6f74206163746976650000000000000000000000600082015250565b6000611ba3601583611b5c565b9150611bae82611b6d565b602082019050919050565b60006020820190508181036000830152611bd281611b96565b9050919050565b7f436f6e747261637420706572696f64206e6f742079657420656e646564000000600082015250565b6000611c0f601d83611b5c565b9150611c1a82611bd9565b602082019050919050565b60006020820190508181036000830152611c3e81611c02565b9050919050565b7f536574746c656d656e7420616c726561647920696e6974696174656400000000600082015250565b6000611c7b601c83611b5c565b9150611c8682611c45565b602082019050919050565b60006020820190508181036000830152611caa81611c6e565b9050919050565b6000819050919050565b611cc481611cb1565b82525050565b600067ffffffffffffffff82169050919050565b611ce781611cca565b82525050565b600061ffff82169050919050565b611d0481611ced565b82525050565b600063ffffffff82169050919050565b611d2381611d0a565b82525050565b600060a082019050611d3e6000830188611cbb565b611d4b6020830187611cde565b611d586040830186611cfb565b611d656060830185611d1a565b611d726080830184611d1a565b9695505050505050565b600081519050611d8b8161144b565b92915050565b600060208284031215611da757611da6611437565b5b6000611db584828501611d7c565b91505092915050565b7f5072656d69756d206d7573742062652067726561746572207468616e207a657260008201527f6f00000000000000000000000000000000000000000000000000000000000000602082015250565b6000611e1a602183611b5c565b9150611e2582611dbe565b604082019050919050565b60006020820190508181036000830152611e4981611e0d565b9050919050565b7f4e487b7100000000000000000000000000000000000000000000000000000000600052601160045260246000fd5b6000611e8a82611441565b9150611e9583611441565b9250828201905080821115611ead57611eac611e50565b5b92915050565b6000611ebe82611441565b91507fffffffffffffffffffffffffffffffffffffffffffffffffffffffffffffffff8203611ef057611eef611e50565b5b600182019050919050565b7f4f6e6c792074686520696e73757265722063616e2066756e6400000000000000600082015250565b6000611f31601983611b5c565b9150611f3c82611efb565b602082019050919050565b60006020820190508181036000830152611f6081611f24565b9050919050565b7f436f6e7472616374206e6f742070656e64696e67000000000000000000000000600082015250565b6000611f9d601483611b5c565b9150611fa882611f67565b602082019050919050565b60006020820190508181036000830152611fcc81611f90565b9050919050565b7f496e737572657220616c72656164792066756e64656400000000000000000000600082015250565b6000612009601683611b5c565b915061201482611fd3565b602082019050919050565b6000602082019050818103600083015261203881611ffc565b9050919050565b7f496e636f7272656374207061796f757420616d6f756e742073656e7400000000600082015250565b6000612075601c83611b5c565b91506120808261203f565b602082019050919050565b600060208201905081810360008301526120a481612068565b9050919050565b60006120b682611441565b91506120c183611441565b92508282039050818111156120d9576120d8611e50565b5b92915050565b7f4e487b7100000000000000000000000000000000000000000000000000000000600052603260045260246000fd5b7f44657269766174697665206e6f742061637469766520666f7220736574746c6560008201527f6d656e7400000000000000000000000000000000000000000000000000000000602082015250565b600061216a602483611b5c565b91506121758261210e565b604082019050919050565b600060208201905081810360008301526121998161215d565b9050919050565b600069ffffffffffffffffffff82169050919050565b6121bf816121a0565b81146121ca57600080fd5b50565b6000815190506121dc816121b6565b92915050565b6000819050919050565b6121f5816121e2565b811461220057600080fd5b50565b600081519050612212816121ec565b92915050565b600080600080600060a0868803121561223457612233611437565b5b6000612242888289016121cd565b955050602061225388828901612203565b945050604061226488828901611d7c565b935050606061227588828901611d7c565b9250506080612286888289016121cd565b9150509295509295909350565b7f4e487b7100000000000000000000000000000000000000000000000000000000600052601260045260246000fd5b60006122cd82611441565b91506122d883611441565b9250826122e8576122e7612293565b5b828204905092915050565b60006122fe82611441565b915061230983611441565b92508261231957612318612293565b5b828206905092915050565b600061232f82611441565b915061233a83611441565b925082820261234881611441565b9150828204841483151761235f5761235e611e50565b5b5092915050565b600081905092915050565b50565b6000612381600083612366565b915061238c82612371565b600082019050919050565b60006123a282612374565b9150819050919050565b7f4661696c656420746f2073656e642066756e647320746f2077696e6e65720000600082015250565b60006123e2601e83611b5c565b91506123ed826123ac565b602082019050919050565b60006020820190508181036000830152612411816123d5565b905091905056fea26469706673582212202dcca8bb4913db9f1f29fca639a7dbddd0143e76cb1e9fe87c5698557ae2f3b264736f6c63430008140033",
  "linkReferences": {},
  "deployedLinkReferences": {}
}