{
  "_format": "hh-sol-artifact-1",
  "contractName": "Atmofi",
  "sourceName": "contracts/Atmofi.sol",
  "abi": [
    {
      "inputs": [
        {
          "internalType": "address",
          "name": "_priceFeedAddress",
          "type": "address"
        }
      ],
      "stateMutability": "nonpayable",
      "type": "constructor"
    },
    {
      "anonymous": false,
      "inputs": [
        {
          "indexed": true,
          "internalType": "uint256",
          "name": "derivativeId",
          "type": "uint256"
        }
      ],
      "name": "ContractFunded",
      "type": "event"
    },
    {
      "anonymous": false,
      "inputs": [
        {
          "indexed": true,
          "internalType": "uint256",
          "name": "derivativeId",
          "type": "uint256"
        },
        {
          "indexed": false,
          "internalType": "int256",
          "name": "settledTemperature",
          "type": "int256"
        },
        {
          "indexed": false,
          "internalType": "address",
          "name": "winner",
          "type": "address"
        }
      ],
      "name": "ContractSettled",
      "type": "event"
    },
    {
      "anonymous": false,
      "inputs": [
        {
          "indexed": true,
          "internalType": "uint256",
          "name": "derivativeId",
          "type": "uint256"
        },
        {
          "indexed": true,
          "internalType": "address",
          "name": "insurer",
          "type": "address"
        },
        {
          "indexed": true,
          "internalType": "address",
          "name": "beverageCompany",
          "type": "address"
        }
      ],
      "name": "DerivativeCreated",
      "type": "event"
    },
    {
      "inputs": [
        {
          "internalType": "uint256",
          "name": "",
          "type": "uint256"
        }
      ],
      "name": "allDerivativeIds",
      "outputs": [
        {
          "internalType": "uint256",
          "name": "",
          "type": "uint256"
        }
      ],
      "stateMutability": "view",
      "type": "function"
    },
    {
      "inputs": [
        {
          "internalType": "uint256",
          "name": "",
          "type": "uint256"
        }
      ],
      "name": "derivatives",
      "outputs": [
        {
          "internalType": "address",
          "name": "insurer",
          "type": "address"
        },
        {
          "internalType": "address",
          "name": "beverageCompany",
          "type": "address"
        },
        {
          "internalType": "uint256",
          "name": "premiumAmount",
          "type": "uint256"
        },
        {
          "internalType": "uint256",
          "name": "payoutAmount",
          "type": "uint256"
        },
        {
          "internalType": "int256",
          "name": "strikeTemperature",
          "type": "int256"
        },
        {
          "internalType": "uint256",
          "name": "startTimestamp",
          "type": "uint256"
        },
        {
          "internalType": "uint256",
          "name": "endTimestamp",
          "type": "uint256"
        },
        {
          "internalType": "enum Atmofi.DerivativeState",
          "name": "state",
          "type": "uint8"
        },
        {
          "internalType": "bool",
          "name": "insurerFunded",
          "type": "bool"
        },
        {
          "internalType": "bool",
          "name": "beverageCompanyFunded",
          "type": "bool"
        }
      ],
      "stateMutability": "view",
      "type": "function"
    },
    {
      "inputs": [
        {
          "internalType": "uint256",
          "name": "derivativeId",
          "type": "uint256"
        }
      ],
      "name": "fundInsurer",
      "outputs": [],
      "stateMutability": "payable",
      "type": "function"
    },
    {
      "inputs": [
        {
          "internalType": "uint256",
          "name": "limit",
          "type": "uint256"
        }
      ],
      "name": "getDerivativeHistory",
      "outputs": [
        {
          "components": [
            {
              "internalType": "address",
              "name": "insurer",
              "type": "address"
            },
            {
              "internalType": "address",
              "name": "beverageCompany",
              "type": "address"
            },
            {
              "internalType": "uint256",
              "name": "premiumAmount",
              "type": "uint256"
            },
            {
              "internalType": "uint256",
              "name": "payoutAmount",
              "type": "uint256"
            },
            {
              "internalType": "int256",
              "name": "strikeTemperature",
              "type": "int256"
            },
            {
              "internalType": "uint256",
              "name": "startTimestamp",
              "type": "uint256"
            },
            {
              "internalType": "uint256",
              "name": "endTimestamp",
              "type": "uint256"
            },
            {
              "internalType": "enum Atmofi.DerivativeState",
              "name": "state",
              "type": "uint8"
            },
            {
              "internalType": "bool",
              "name": "insurerFunded",
              "type": "bool"
            },
            {
              "internalType": "bool",
              "name": "beverageCompanyFunded",
              "type": "bool"
            }
          ],
          "internalType": "struct Atmofi.Derivative[]",
          "name": "",
          "type": "tuple[]"
        }
      ],
      "stateMutability": "view",
      "type": "function"
    },
    {
      "inputs": [
        {
          "internalType": "uint256",
          "name": "limit",
          "type": "uint256"
        }
      ],
      "name": "getHistory",
      "outputs": [
        {
          "components": [
            {
              "internalType": "address",
              "name": "insurer",
              "type": "address"
            },
            {
              "internalType": "address",
              "name": "beverageCompany",
              "type": "address"
            },
            {
              "internalType": "uint256",
              "name": "premiumAmount",
              "type": "uint256"
            },
            {
              "internalType": "uint256",
              "name": "payoutAmount",
              "type": "uint256"
            },
            {
              "internalType": "int256",
              "name": "strikeTemperature",
              "type": "int256"
            },
            {
              "internalType": "uint256",
              "name": "startTimestamp",
              "type": "uint256"
            },
            {
              "internalType": "uint256",
              "name": "endTimestamp",
              "type": "uint256"
            },
            {
              "internalType": "enum Atmofi.DerivativeState",
              "name": "state",
              "type": "uint8"
            },
            {
              "internalType": "bool",
              "name": "insurerFunded",
              "type": "bool"
            },
            {
              "internalType": "bool",
              "name": "beverageCompanyFunded",
              "type": "bool"
            }
          ],
          "internalType": "struct Atmofi.Derivative[]",
          "name": "",
          "type": "tuple[]"
        }
      ],
      "stateMutability": "view",
      "type": "function"
    },
    {
      "inputs": [
        {
          "internalType": "address",
          "name": "beverageCompany",
          "type": "address"
        },
        {
          "internalType": "uint256",
          "name": "payoutAmount",
          "type": "uint256"
        },
        {
          "internalType": "int256",
          "name": "strikeTemperature",
          "type": "int256"
        },
        {
          "internalType": "uint256",
          "name": "durationSeconds",
          "type": "uint256"
        }
      ],
      "name": "initialize",
      "outputs": [],
      "stateMutability": "payable",
      "type": "function"
    },
    {
      "inputs": [],
      "name": "nextDerivativeId",
      "outputs": [
        {
          "internalType": "uint256",
          "name": "",
          "type": "uint256"
        }
      ],
      "stateMutability": "view",
      "type": "function"
    },
    {
      "inputs": [],
      "name": "priceFeedContractAddress",
      "outputs": [
        {
          "internalType": "address",
          "name": "",
          "type": "address"
        }
      ],
      "stateMutability": "view",
      "type": "function"
    },
    {
      "inputs": [
        {
          "internalType": "uint256",
          "name": "derivativeId",
          "type": "uint256"
        }
      ],
      "name": "settleContract",
      "outputs": [],
      "stateMutability": "nonpayable",
      "type": "function"
    },
    {
      "inputs": [
        {
          "internalType": "uint256",
          "name": "",
          "type": "uint256"
        }
      ],
      "name": "settledDerivativeIds",
      "outputs": [
        {
          "internalType": "uint256",
          "name": "",
          "type": "uint256"
        }
      ],
      "stateMutability": "view",
      "type": "function"
    }
  ],
  "bytecode": "0x60c06040523480156200001157600080fd5b5060405162001dfb38038062001dfb833981810160405281019062000037919062000110565b8073ffffffffffffffffffffffffffffffffffffffff1660808173ffffffffffffffffffffffffffffffffffffffff16815250508073ffffffffffffffffffffffffffffffffffffffff1660a08173ffffffffffffffffffffffffffffffffffffffff16815250505062000142565b600080fd5b600073ffffffffffffffffffffffffffffffffffffffff82169050919050565b6000620000d882620000ab565b9050919050565b620000ea81620000cb565b8114620000f657600080fd5b50565b6000815190506200010a81620000df565b92915050565b600060208284031215620001295762000128620000a6565b5b60006200013984828501620000f9565b91505092915050565b60805160a051611c9362000168600039600061058f0152600061035f0152611c936000f3fe6080604052600436106100915760003560e01c8063a529303a11610059578063a529303a1461015f578063b6a251261461019c578063c0046e39146101d9578063c8691b2a1461021f578063fac3fa3d1461025c57610091565b80632577929b146100965780636c96d11f146100bf578063947b1bde146100ea57806399926589146101275780639b4c0f2714610143575b600080fd5b3480156100a257600080fd5b506100bd60048036038101906100b891906111aa565b610287565b005b3480156100cb57600080fd5b506100d461058d565b6040516100e19190611218565b60405180910390f35b3480156100f657600080fd5b50610111600480360381019061010c91906111aa565b6105b1565b60405161011e9190611242565b60405180910390f35b610141600480360381019061013c91906112bf565b6105d5565b005b61015d600480360381019061015891906111aa565b61089f565b005b34801561016b57600080fd5b50610186600480360381019061018191906111aa565b610ad2565b6040516101939190611242565b60405180910390f35b3480156101a857600080fd5b506101c360048036038101906101be91906111aa565b610af6565b6040516101d09190611561565b60405180910390f35b3480156101e557600080fd5b5061020060048036038101906101fb91906111aa565b610dc0565b6040516102169a999897969594939291906115b0565b60405180910390f35b34801561022b57600080fd5b50610246600480360381019061024191906111aa565b610e7b565b6040516102539190611561565b60405180910390f35b34801561026857600080fd5b506102716110d4565b60405161027e9190611242565b60405180910390f35b60008060008381526020019081526020016000209050600160028111156102b1576102b061137f565b5b8160070160009054906101000a900460ff1660028111156102d5576102d461137f565b5b14610315576040517f08c379a000000000000000000000000000000000000000000000000000000000815260040161030c906116a9565b60405180910390fd5b8060060154421161035b576040517f08c379a000000000000000000000000000000000000000000000000000000000815260040161035290611715565b60405180910390fd5b60007f000000000000000000000000000000000000000000000000000000000000000073ffffffffffffffffffffffffffffffffffffffff1663feaf968c6040518163ffffffff1660e01b815260040160a060405180830381865afa1580156103c8573d6000803e3d6000fd5b505050506040513d601f19601f820116820180604052508101906103ec91906117a1565b50505091505060006305f5e10082610404919061187a565b905060028360070160006101000a81548160ff0219169083600281111561042e5761042d61137f565b5b02179055506002849080600181540180825580915050600190039060005260206000200160009091909190915055600083600401548212156104dd578360010160009054906101000a900473ffffffffffffffffffffffffffffffffffffffff1690508073ffffffffffffffffffffffffffffffffffffffff166108fc479081150290604051600060405180830381858888f193505050501580156104d7573d6000803e3d6000fd5b5061054c565b8360000160009054906101000a900473ffffffffffffffffffffffffffffffffffffffff1690508073ffffffffffffffffffffffffffffffffffffffff166108fc479081150290604051600060405180830381858888f1935050505015801561054a573d6000803e3d6000fd5b505b847f94faa0c1cb78f1435e7c6be0b55470d53ae8e5043d5338b2fc80042db1a61fa9838360405161057e9291906118e4565b60405180910390a25050505050565b7f000000000000000000000000000000000000000000000000000000000000000081565b600281815481106105c157600080fd5b906000526020600020016000915090505481565b60003411610618576040517f08c379a000000000000000000000000000000000000000000000000000000000815260040161060f9061197f565b60405180910390fd5b600060015490506040518061014001604052803373ffffffffffffffffffffffffffffffffffffffff1681526020018673ffffffffffffffffffffffffffffffffffffffff1681526020013481526020018581526020018481526020014281526020018342610687919061199f565b8152602001600060028111156106a05761069f61137f565b5b81526020016000151581526020016001151581525060008083815260200190815260200160002060008201518160000160006101000a81548173ffffffffffffffffffffffffffffffffffffffff021916908373ffffffffffffffffffffffffffffffffffffffff16021790555060208201518160010160006101000a81548173ffffffffffffffffffffffffffffffffffffffff021916908373ffffffffffffffffffffffffffffffffffffffff16021790555060408201518160020155606082015181600301556080820151816004015560a0820151816005015560c0820151816006015560e08201518160070160006101000a81548160ff021916908360028111156107b2576107b161137f565b5b02179055506101008201518160070160016101000a81548160ff0219169083151502179055506101208201518160070160026101000a81548160ff0219169083151502179055509050506001600081548092919061080f906119d3565b919050555060038190806001815401808255809150506001900390600052602060002001600090919091909150558473ffffffffffffffffffffffffffffffffffffffff163373ffffffffffffffffffffffffffffffffffffffff16827ff9df1cdb506b6ebae5111bd564c04f981ee86673381312b184c8141566d256b460405160405180910390a45050505050565b600080600083815260200190815260200160002090508060000160009054906101000a900473ffffffffffffffffffffffffffffffffffffffff1673ffffffffffffffffffffffffffffffffffffffff163373ffffffffffffffffffffffffffffffffffffffff1614610947576040517f08c379a000000000000000000000000000000000000000000000000000000000815260040161093e90611a67565b60405180910390fd5b6000600281111561095b5761095a61137f565b5b8160070160009054906101000a900460ff16600281111561097f5761097e61137f565b5b146109bf576040517f08c379a00000000000000000000000000000000000000000000000000000000081526004016109b690611ad3565b60405180910390fd5b8060070160019054906101000a900460ff1615610a11576040517f08c379a0000000000000000000000000000000000000000000000000000000008152600401610a0890611b3f565b60405180910390fd5b80600301543414610a57576040517f08c379a0000000000000000000000000000000000000000000000000000000008152600401610a4e90611bab565b60405180910390fd5b60018160070160016101000a81548160ff02191690831515021790555060018160070160006101000a81548160ff02191690836002811115610a9c57610a9b61137f565b5b0217905550817f932461ba6e96b11d9e6e7794a08b1d4a8e6dfd4f1f2d93be10af806b75431e7460405160405180910390a25050565b60038181548110610ae257600080fd5b906000526020600020016000915090505481565b60606000600380549050905060008103610b6757600067ffffffffffffffff811115610b2557610b24611bcb565b5b604051908082528060200260200182016040528015610b5e57816020015b610b4b6110da565b815260200190600190039081610b435790505b50915050610dbb565b80831180610b755750600083145b15610b7e578092505b60008367ffffffffffffffff811115610b9a57610b99611bcb565b5b604051908082528060200260200182016040528015610bd357816020015b610bc06110da565b815260200190600190039081610bb85790505b50905060005b84811015610db457600080600383600187610bf49190611bfa565b610bfe9190611bfa565b81548110610c0f57610c0e611c2e565b5b90600052602060002001548152602001908152602001600020604051806101400160405290816000820160009054906101000a900473ffffffffffffffffffffffffffffffffffffffff1673ffffffffffffffffffffffffffffffffffffffff1673ffffffffffffffffffffffffffffffffffffffff1681526020016001820160009054906101000a900473ffffffffffffffffffffffffffffffffffffffff1673ffffffffffffffffffffffffffffffffffffffff1673ffffffffffffffffffffffffffffffffffffffff16815260200160028201548152602001600382015481526020016004820154815260200160058201548152602001600682015481526020016007820160009054906101000a900460ff166002811115610d3757610d3661137f565b5b6002811115610d4957610d4861137f565b5b81526020016007820160019054906101000a900460ff161515151581526020016007820160029054906101000a900460ff161515151581525050828281518110610d9657610d95611c2e565b5b60200260200101819052508080610dac906119d3565b915050610bd9565b5080925050505b919050565b60006020528060005260406000206000915090508060000160009054906101000a900473ffffffffffffffffffffffffffffffffffffffff16908060010160009054906101000a900473ffffffffffffffffffffffffffffffffffffffff16908060020154908060030154908060040154908060050154908060060154908060070160009054906101000a900460ff16908060070160019054906101000a900460ff16908060070160029054906101000a900460ff1690508a565b60606000600280549050905080831115610e93578092505b60008367ffffffffffffffff811115610eaf57610eae611bcb565b5b604051908082528060200260200182016040528015610ee857816020015b610ed56110da565b815260200190600190039081610ecd5790505b50905060005b848110156110c957600080600283600187610f099190611bfa565b610f139190611bfa565b81548110610f2457610f23611c2e565b5b90600052602060002001548152602001908152602001600020604051806101400160405290816000820160009054906101000a900473ffffffffffffffffffffffffffffffffffffffff1673ffffffffffffffffffffffffffffffffffffffff1673ffffffffffffffffffffffffffffffffffffffff1681526020016001820160009054906101000a900473ffffffffffffffffffffffffffffffffffffffff1673ffffffffffffffffffffffffffffffffffffffff1673ffffffffffffffffffffffffffffffffffffffff16815260200160028201548152602001600382015481526020016004820154815260200160058201548152602001600682015481526020016007820160009054906101000a900460ff16600281111561104c5761104b61137f565b5b600281111561105e5761105d61137f565b5b81526020016007820160019054906101000a900460ff161515151581526020016007820160029054906101000a900460ff1615151515815250508282815181106110ab576110aa611c2e565b5b602002602001018190525080806110c1906119d3565b915050610eee565b508092505050919050565b60015481565b604051806101400160405280600073ffffffffffffffffffffffffffffffffffffffff168152602001600073ffffffffffffffffffffffffffffffffffffffff1681526020016000815260200160008152602001600081526020016000815260200160008152602001600060028111156111575761115661137f565b5b81526020016000151581526020016000151581525090565b600080fd5b6000819050919050565b61118781611174565b811461119257600080fd5b50565b6000813590506111a48161117e565b92915050565b6000602082840312156111c0576111bf61116f565b5b60006111ce84828501611195565b91505092915050565b600073ffffffffffffffffffffffffffffffffffffffff82169050919050565b6000611202826111d7565b9050919050565b611212816111f7565b82525050565b600060208201905061122d6000830184611209565b92915050565b61123c81611174565b82525050565b60006020820190506112576000830184611233565b92915050565b611266816111f7565b811461127157600080fd5b50565b6000813590506112838161125d565b92915050565b6000819050919050565b61129c81611289565b81146112a757600080fd5b50565b6000813590506112b981611293565b92915050565b600080600080608085870312156112d9576112d861116f565b5b60006112e787828801611274565b94505060206112f887828801611195565b9350506040611309878288016112aa565b925050606061131a87828801611195565b91505092959194509250565b600081519050919050565b600082825260208201905092915050565b6000819050602082019050919050565b61135b816111f7565b82525050565b61136a81611174565b82525050565b61137981611289565b82525050565b7f4e487b7100000000000000000000000000000000000000000000000000000000600052602160045260246000fd5b600381106113bf576113be61137f565b5b50565b60008190506113d0826113ae565b919050565b60006113e0826113c2565b9050919050565b6113f0816113d5565b82525050565b60008115159050919050565b61140b816113f6565b82525050565b610140820160008201516114286000850182611352565b50602082015161143b6020850182611352565b50604082015161144e6040850182611361565b5060608201516114616060850182611361565b5060808201516114746080850182611370565b5060a082015161148760a0850182611361565b5060c082015161149a60c0850182611361565b5060e08201516114ad60e08501826113e7565b506101008201516114c2610100850182611402565b506101208201516114d7610120850182611402565b50505050565b60006114e98383611411565b6101408301905092915050565b6000602082019050919050565b600061150e82611326565b6115188185611331565b935061152383611342565b8060005b8381101561155457815161153b88826114dd565b9750611546836114f6565b925050600181019050611527565b5085935050505092915050565b6000602082019050818103600083015261157b8184611503565b905092915050565b61158c81611289565b82525050565b61159b816113d5565b82525050565b6115aa816113f6565b82525050565b6000610140820190506115c6600083018d611209565b6115d3602083018c611209565b6115e0604083018b611233565b6115ed606083018a611233565b6115fa6080830189611583565b61160760a0830188611233565b61161460c0830187611233565b61162160e0830186611592565b61162f6101008301856115a1565b61163d6101208301846115a1565b9b9a5050505050505050505050565b600082825260208201905092915050565b7f436f6e7472616374206e6f742066756e64656400000000000000000000000000600082015250565b600061169360138361164c565b915061169e8261165d565b602082019050919050565b600060208201905081810360008301526116c281611686565b9050919050565b7f436f6e747261637420706572696f64206e6f742079657420656e646564000000600082015250565b60006116ff601d8361164c565b915061170a826116c9565b602082019050919050565b6000602082019050818103600083015261172e816116f2565b9050919050565b600069ffffffffffffffffffff82169050919050565b61175481611735565b811461175f57600080fd5b50565b6000815190506117718161174b565b92915050565b60008151905061178681611293565b92915050565b60008151905061179b8161117e565b92915050565b600080600080600060a086880312156117bd576117bc61116f565b5b60006117cb88828901611762565b95505060206117dc88828901611777565b94505060406117ed8882890161178c565b93505060606117fe8882890161178c565b925050608061180f88828901611762565b9150509295509295909350565b7f4e487b7100000000000000000000000000000000000000000000000000000000600052601260045260246000fd5b7f4e487b7100000000000000000000000000000000000000000000000000000000600052601160045260246000fd5b600061188582611289565b915061189083611289565b9250826118a05761189f61181c565b5b600160000383147f8000000000000000000000000000000000000000000000000000000000000000831416156118d9576118d861184b565b5b828205905092915050565b60006040820190506118f96000830185611583565b6119066020830184611209565b9392505050565b7f5072656d69756d206d7573742062652067726561746572207468616e207a657260008201527f6f00000000000000000000000000000000000000000000000000000000000000602082015250565b600061196960218361164c565b91506119748261190d565b604082019050919050565b600060208201905081810360008301526119988161195c565b9050919050565b60006119aa82611174565b91506119b583611174565b92508282019050808211156119cd576119cc61184b565b5b92915050565b60006119de82611174565b91507fffffffffffffffffffffffffffffffffffffffffffffffffffffffffffffffff8203611a1057611a0f61184b565b5b600182019050919050565b7f4f6e6c792074686520696e73757265722063616e2066756e6400000000000000600082015250565b6000611a5160198361164c565b9150611a5c82611a1b565b602082019050919050565b60006020820190508181036000830152611a8081611a44565b9050919050565b7f436f6e7472616374206e6f742070656e64696e67000000000000000000000000600082015250565b6000611abd60148361164c565b9150611ac882611a87565b602082019050919050565b60006020820190508181036000830152611aec81611ab0565b9050919050565b7f496e737572657220616c72656164792066756e64656400000000000000000000600082015250565b6000611b2960168361164c565b9150611b3482611af3565b602082019050919050565b60006020820190508181036000830152611b5881611b1c565b9050919050565b7f496e636f7272656374207061796f757420616d6f756e742073656e7400000000600082015250565b6000611b95601c8361164c565b9150611ba082611b5f565b602082019050919050565b60006020820190508181036000830152611bc481611b88565b9050919050565b7f4e487b7100000000000000000000000000000000000000000000000000000000600052604160045260246000fd5b6000611c0582611174565b9150611c1083611174565b9250828203905081811115611c2857611c2761184b565b5b92915050565b7f4e487b7100000000000000000000000000000000000000000000000000000000600052603260045260246000fdfea2646970667358221220d93aeec928c766d0b01364a3a63b05d53cd927333fde97f2b2f1417a4891147c64736f6c63430008140033",
  "linkReferences": {},
  "deployedLinkReferences": {}
}